:020000040000FA
:02000000C9290C
:08000800F000030E8301F1007A
:100010000A08F2008A0183130408F3008B1C3128BC
:1000200083160313010883120313F500751F1E289E
:1000300086181C28C7032328C70A2328861C2228C1
:10004000C7032328C70A751F2B2883160313011320
:10005000831203133028831603130117831203132B
:100060008B100C1C3E280C10E808031DE803E9085F
:10007000031DE903D9308F0000308E008C1C44280A
:100080008C10EA08031DEA030B1D47280B110D1AFB
:100090000D127308840072088A00710E8300F00E3E
:1000A000700E09000F398207303431343234333462
:1000B00034343534363437343834393441344234D6
:1000C00043344434453446340F398207BE34B434A3
:1000D000AA34A03496348C34823478346E34643448
:1000E0005A34503446343C343234283483160313A3
:1000F000280883120313C100C10CC10C410C1F3925
:100100008207853478346D3464345C34563450342A
:100110004B34473443343F343C343934373434344B
:10012000323430342E342C342B34293428342734D0
:1001300026342434233422342134203420341F3410
:100140001E34C100C10CC10C410C1F398207093497
:100150001034113412341334143415341634173463
:1001600018341934203421342234233424342534EF
:10017000263427342834293430343134323433347B
:100180003434353436343734383439344034C701B4
:100190000130C4000A30C100DD20031CDC2820210E
:1001A000C10BCC2883210830F40090308D2102301F
:1001B000C400DD200318D72808000314861A031092
:1001C0000800830183160313403081002F3085001F
:1001D000E33086000030870002309F0003308C003F
:1001E00010308D0083120313D0308B000030850057
:1001F000003086000030870001309000013092000E
:100200002030840080016E30040203190929840A19
:100210000229D9308F0000308E008316031301307D
:10022000D500D301D401831203130800FA30292129
:10023000FA302921FA302921FA3029296430292974
:10024000323029290A302929053029290330292962
:100250000130BE00BE0ABE0B2E2908001330BF00BD
:10026000BF0B33292B291030C000C00B3529302992
:1002700007100F30292120306021803060210530A7
:100280002921203060218030602101302921063071
:1002900059210C3059211430592183210800F600CE
:1002A00066217608F03904386021760EF03904387A
:1002B0006029F60066217608F0396021760EF03963
:1002C0008719083887000714071008008717831656
:1002D0000313803087008312031307118714BA13A6
:1002E00007140000871FBA1707100000071400004A
:1002F0000710BA1F6F29831603130030870083127B
:100300000313871008000130592902305929803021
:100310005929C030592980385929831203178D0073
:1003200074088F00831603178C178B138B1B95296A
:100330000C14000000008B17831203170C088312A3
:1003400003138B21831203178D0A03198F0A831657
:1003500003178C178B138B1BAA290C1400000000A9
:100360008B17831203170C0883120313FF39031929
:1003700008004F21831203178D0A03198F0AA7293A
:1003800020304F29F700770E52204F217708522056
:100390004F29E1200130B9008A150A169C228A11E2
:1003A0000A12A425051638210830F4005E308D218C
:1003B0000830F40042308D210730C1001C212E305E
:1003C0004F21C10BDE299926200A031DFD29023089
:1003D000C1000930F40004308D210930F4001630DA
:1003E0008D2116210830592116210C305921162152
:1003F000C10BF2298A110A168D29861A142A832123
:100400000830F40070308D210830F4004D308D211B
:1004100016211621162116211621861E0D2A8A1153
:100420000A163E2E8A110A128321201D0512652606
:10043000BA15C5010230C6001030EB003B15BB14E5
:100440003A14C70803194C2A3A1065264708201F9A
:100450003A2AC71B322AC7017F39D1002724D10B82
:100460002E2A4A2A4709C701013ED100D623D10BC3
:10047000362A4A2AC71B432AC7017F39D100D6230F
:10048000D10B3F2A4A2A4709C701013ED100272440
:10049000D10B472ABB143B153B1D522A3A1030237F
:1004A0000F233B11BB1C5D2A3A10322587195B2AAA
:1004B000282178255C2A6D25BB10861A772A3A10E8
:1004C00020180516C7204408013A031D702AC60AE1
:1004D0004608043A031D6E2A0130C6003B15752AF2
:1004E0008A110A1674208A110A1220186526A01C87
:1004F000962A061FBA14861F3A15BA1C882A3A1083
:100500006D25871533268711282178253326BA10C3
:100510003A1DA32A3A106D25871533263326332634
:1005200087112821782533263A11A32A061B9E2AF3
:100530008719A32A3A106D258715A32A871DA32A98
:10054000282178258711E8080319AE2ABA1DB52A93
:1005500020180516BA113A163B15B52A3A1EB52AC7
:1005600020180512BA153A123B153A1FBC2A652607
:1005700030230F233A103A133A1C0E2B6B08013A22
:10058000031DC72A8A110A1679248A110A126B08D8
:10059000023A031DD02A8A110A163D248A110A1232
:1005A0006B08033A031DFD2A83160313A50DA60D40
:1005B000A50DA60DA50DA60DA50DA60D2608A3003B
:1005C0002708A6020319F72A2308A600270AA6026D
:1005D0000319F72A2308A6002703A6020319F72AFE
:1005E000831203133A17831603132308A700A301EA
:1005F000A401A501A60183120313EB0B012B1030FC
:10060000EB00F42583160313A300A4012308A50718
:1006100024080318240FA60783120313202AA01C02
:100620001E2B3A1F1E2B0830F40089308D21F42533
:10063000A120C221C021C021C021080040308B214F
:10064000BB1E242B78302C2B41303B1C4230A01D8C
:100650002C2B61303B1C62304F213B1C422B4B2B1F
:1006600003018B21BB1E362B72303E2B41303B18D1
:100670004230A01D3E2B61303B1862304F213B18A9
:10068000422B4B2B2E08D9002D08D8002F08DA005A
:100690003008DB00532B2A08D9002908D8002B0882
:1006A000DA002C08DB00201F5F2B5830BC003530EF
:1006B000BD008A110A12D12356248A110A165B3012
:1006C00084003B17000E9723000897232E304F21FC
:1006D0008403000E97234608043A03198A2B000866
:1006E00097238403000E97232E304F214608033AA8
:1006F0000319902B000897234608023A0319922BFE
:100700008403000E97234608013A0319942B00082E
:100710009723962B20304F2120304F2120304F211E
:1007200020304F2120304F2120304F2108000F3939
:10073000031D9E2B3B1F9E2B2030A02B30383B13DC
:100740004F29073982078034303424342034173459
:100750001534123410343908A123C2210B30F400AF
:10076000B0308D210A30C10006082039C20028218E
:10077000060820394206031DB22BC10BB42B4208D8
:100780002039031DC72B0130C4000314CA2B0030CD
:10079000C40003100800CC01CD01CE01CF01D0016F
:1007A000D101C801C901CA01CB01080046080319DB
:1007B000022C013A0319FD2B4608023A0319F82BC3
:1007C0004608033A0319EE2B4608043A0319E92BAD
:1007D00008002525D1231030CA00052C2525D1235A
:1007E0001030C900052C2525D1230130C900052C66
:1007F0002525D1235030C800052C2525D1231030C4
:10080000C800052C2525D123C80A0430CC003C089B
:1008100084000008CD003D0884000008CD070630A4
:100820004D07831C142CCD0060304D07031C1E2C7B
:10083000CD003C088400840A800A84033C088400BC
:100840004D088000BC0ABD0ACC0B072C08004608E6
:100850000319532C013A03194E2C4608023A031986
:10086000492C4608033A03193F2C4608043A031959
:100870003A2C08002525D1231030CA00562C2525F6
:10088000D1231030C900562C2525D1230130C900B1
:10089000562C2525D1235030C800562C2525D12390
:1008A0001030C800562C2525D123C80A0430CC00AE
:1008B0003C0884000008CD003D0884000008CD02FB
:1008C000CE0D8318652C0630CD024E186C2C60308E
:1008D000CD02840A800A84033C0884004D0880000D
:1008E000BC0ABD0ACC0B582C0800CB233C08840062
:1008F0000008C800840A0008C900840A0008CA0069
:10090000840A0008CB002030D0000310CB0CCA0CA6
:10091000C90CC80CCF0CCE0CCD0CCC0C48308400CC
:100920000430D100801F962C30308002801D9A2C1C
:1009300003308002840AD10B922CD00B852C080046
:100940002608C9002508C8002708CA002808CB00C7
:100950004808CC0749080318490FCD074A0803186F
:100960004A0FCE074B0803184B0FCF070800260885
:10097000C9002508C8002708CA002808CB00480875
:10098000CC024908031C490FCD024A08031C4A0F38
:10099000CE024B08031C4B0FCF02CF1F0800CC091F
:1009A000CD09CE09CF09CC0A0319CD0A0319CE0A05
:1009B0000319CF0A08002108D8002208D90023080B
:1009C000DA002408DB002030D0005830BC00603052
:1009D000BD00C9010310CF0CCE0CCD0CCC0C031CF8
:1009E0000A2D0830CA003C0884000008C8003D08F1
:1009F00084004908C9018007031C002D0130C9008B
:100A000048088007031C062D0130C900BC0ABD0A36
:100A1000CA0BF32C0310D80DD90DDA0DDB0DDC0D4C
:100A2000DD0DDE0DDF0DD00BE52C08004830840015
:100A300080016730040203191F2D840A182D080055
:100A4000A0192D2DBB1A2D2D292D4830BD00BB1A04
:100A50002D2D29303B182D30302D29303B1C2D30C9
:100A6000BC000800162529257524201EB724201A4D
:100A7000A024DB246408FB006308FA006508FC007E
:100A80006608FD00831603137B08C6007A08C500BC
:100A90007C08C7007D08C800831203131625202593
:100AA0007524A01A572D201EB724201AA024DB2459
:100AB0006408FB006308FA006508FC006608FD0096
:100AC000831603137B08CA007A08C9007C08CB0090
:100AD0007D08CC00831203130800831603134A0811
:100AE000D0004908CF004B08D1004C08D200822D1D
:100AF000831603134608D0004508CF004708D100ED
:100B00004808D20083120313BA2583160313500832
:100B1000CE004F08CD00CE134E1783120313C0250D
:100B200083160313CF0DD00DD10DD20DCF0DD00DE7
:100B3000D10DD20D5208CE005108CD00CE134E1764
:100B400083120313C025080083120313BA258316EA
:100B500003134430CE00BB30CD0083120313C025F5
:100B6000831603134730CE00AE30CD00831203133B
:100B7000C0250800831603132030CE000030CD00BE
:100B8000831203130611831603134E0883120313F3
:100B9000D125831603134D0883120313D12506159F
:100BA0000800C8000830C100C80D031C0612031855
:100BB000061686118615C10BD42D08008316031363
:100BC0009F17831203136130F52583160313AD00BD
:100BD0001E08AC009F138312031308005930F52D33
:100BE0005130F52D4930F52D41309F00013029213C
:100BF0001F151F19F92D1E080800D1009A30D000CA
:100C00005108D101D115CE01CF010310CE0DCF0D6A
:100C1000D00D031C0E2ECE070318CF0AD10B052EC4
:100C2000003003104F070800D0000830D100CE017B
:100C3000CF014E080F39CD0005304D02031C222E86
:100C40000330CE074E08F039CD0050304D02031C62
:100C50002B2E3030CE070310D00DCE0DCF0DD10B83
:100C6000192E4E080800F42583160313A8008312DA
:100C700003137620EA00F230871DF2308316031347
:100C800000009200831203131215061FBA14861F68
:100C90003A15EA08031D452E12110800D1002A302A
:100CA000D0005108D101D115CE01CF010310CE0DD6
:100CB000CF0DD00D031C5F2ECE070318CF0AD10B2A
:100CC000562E093003104F070800C830E80008000E
:100CD000831603178C186A2E831203137808831265
:100CE00003178D00831203137908831203178C00F6
:100CF000831603178C130C158B138B1B7C2E55300E
:100D00008D00AA308D008C148C18842E8B170C113A
:100D10008312031308007808831203178D008316CB
:100D200003178C130C14831203170C08831203137C
:100D300008001530C10020308400F801B3260430CB
:100D4000C1007A3084001D30F800B32683160313E7
:100D50007B08AF007A08AE007C08B0007D08B100C7
:100D60008312031308008B268000840AF80AC10B43
:100D7000B32E08000008F9006826840AF80AC10B9F
:040D8000BA2E08007F
:101000003F398207003400340034013401340134A4
:10101000023403340334043405340634063407340C
:10102000083409341034113412341434153417349C
:1010300018341934203422342434253427343034FD
:10104000323434343534373439344034433445342D
:101050004734503452345434563458346034633442
:101060006534673469347234743476347834813456
:10107000833485348734903492349434963499345C
:10108000993499344034563432342E343134203447
:1010900069346E3469347434003440345634323434
:1010A0002E343134203420342034323437342E344A
:1010B000303439342E343234313400340034443452
:1010C0004C342D345134523450342D34413447345F
:1010D000203455346E346934443444345334003449
:1010E00000344434443453342D34563446344F346D
:1010F00028346334293444344C3434344A3441344D
:101100004C34003400345334573452343A3420349D
:1011100000344034573470344D343A342034003481
:1011200000344D3465346E347534003440347334D7
:10113000633461346E346E3469346E346734003431
:10114000403462347234653461346B34203420347A
:1011500020340034093473346134763465342034F7
:101160002034203400340934633461346E34633401
:1011700065346C3420340034003453343D3430341E
:101180002034203430342034753456342034203424
:10119000203428346F346B34293400340034533411
:1011A0003D343934203435343034203475345634B9
:1011B00020342034203428346F346B342934003404
:1011C0004034203420342034563446344F342B34C9
:1011D0005A3446342034203420342034203420340F
:1011E0002034003440342034203420345634463403
:1011F0004F342D345A3446342034203420342034B3
:10120000203420342034003400346634693472349D
:1012100073347434203469346E3469347434203453
:1012200020342034203420342034003440347034CE
:101230006C346534613473346534203469346E340D
:1012400070347534743420346E3472342134003484
:101250000034743475346E3469346E346734203439
:1012600020342034203420342034203420342034DE
:101270002034003440342034203420346F346E3431
:1012800020342034203420342034203420342034BE
:1012900020342034203400344034203420342034AE
:1012A0006F346634663420342034203420342034C3
:1012B00020342034203420342034003400342034CE
:1012C0003034203462347234653461346B34203409
:1012D000203420342034203420342034203400348E
:1012E0000034203431342034563446344F342034E2
:1012F00041342F34423420342034203420342034FC
:101300002034003400342034323420344234613408
:101310006E3464342034203420342034203420349B
:10132000203420342034003400342034333420344A
:101330006C34693467346834743420346F346E34F8
:101340002F346F3466346634203400340034203453
:10135000343420346C346934673468347434203461
:101360006134753474346F342034203420340034C4
:1013700000342034353420347334633461346E34B3
:1013800020342034203420342034203420342034BD
:10139000203400340034203436342034533445347F
:1013A0005434553450342034203420342034203404
:1013B00020342034203400340034203437342034B6
:1013C0006B346534793465347234203420342034FD
:1013D00020342034203420342034003400342034AD
:1013E00038342034743475346E3465342034203409
:1013F000203420342034203420342034203400346D
:10140000003420343934203478346934743420344E
:1014100031346B34203420342034203420342034D0
:10142000203400340034313430342034783469349A
:101430007434203432346B3420342034203420345B
:10144000203420342034003400343134313420341A
:1014500072346934743420342034203420342034FD
:10146000203420342034203420340034003420341C
:10147000303420345334653474347534703420344B
:1014800062347234653461346B3420342034003477
:1014900000342034313420344434443453342D3433
:1014A000543461346B347434203420342034203488
:1014B000203400340034203432342034563446345E
:1014C0004F342D3441342034283448347A3429348C
:1014D0002034203420340034003420343334203499
:1014E000563446344F342D34423420342834483472
:1014F0007A34293420342034203400340034203429
:10150000343420345A3446342034283448347A343D
:101510002934203420342034203420342034003442
:1015200000342034353420347334633461346E3401
:101530002D3462346534673469346E342034203499
:10154000203400340034203436342034733463348F
:1015500061346E342D3465346E3464342034203478
:101560002034203420340034003420343734203404
:1015700053342D344D34653474346534723420342E
:1015800065346934633468342E34003400342034D4
:1015900038342034563446344F3420342B342F34EE
:1015A0002D3420345A34463420342034203400344E
:1015B00000342034393420345434583420342B341B
:1015C0002F342D3420345A344634203420342034FF
:1015D000203400340034313430342034483457342B
:1015E00039342D344D346F34643465342034203430
:1015F0002034203420340034003431343134203469
:101600006434653466342E34203463346F346E347D
:101610006634693467342034203400340034203494
:1016200030342034423461346E34643420346234D3
:101630007234653461346B34203420342034003407
:101640000034203431342034383430346D34203494
:1016500020342034203420342034203420342034EA
:1016600020340034003420343234203434343034E4
:101670006D3420342034203420342034203420347D
:1016800020342034203400340034203433342034E7
:10169000333430346D34203420342034203420343A
:1016A00020342034203420342034003400342034DA
:1016B00034342034323430346D3420342034203407
:1016C000203420342034203420342034203400349A
:1016D0000034203435342034313437346D34203400
:1016E000203420342034203420342034203420345A
:1016F000203400340034203436342034313435344E
:101700006D342034203420342034203420342034EC
:101710002034203420340034003420343734203452
:10172000313432346D3420342034203420342034A9
:101730002034203420342034203400340034203449
:1017400038342034313430346D3420342034203473
:101750002034203420342034203420342034003409
:0617600000346D3400347A
:102000000F398207FC2A052B0E2B172B202B292B8F
:10201000322B3B2B442B602B7C2B982BB32BB32BDD
:10202000B32BB32B0F398207B32BF32BEA2BFC2BEB
:102030000A2CBC2BC52BCE2B182C212C2F2CDC2BA7
:10204000B32BB32BB32BB32BB32BB32B0F3982078B
:102050000E2B202B322B442B562B682B7A2B8C2BC0
:102060009E2B0E2B0E2B0E2B0E2B0E2B0E2B0E2B18
:102070000F3982077B297F2982298429862989298A
:102080008B297028752969296F298D29D728D72888
:10209000D728D7280F398207D728E5280229082909
:1020A0005A29912D3E2EFC28122926294029EB2859
:1020B000D728D728D728D728D728D7280F39820755
:1020C00030343134323433343434353436343734D4
:1020D000383439342B342B342B342B342B342B34ED
:1020E0008A150A1683297B29C7018A110A128321BE
:1020F0008A110A168A110A12B2238A110A160318C3
:102100007A284508122047080319A2288A110A12C2
:1021100065268A110A16C71B9328C50A45080C3A7A
:102120000319C5019A28C5034508FF3A031D9A28DB
:102130000B30C5008A110A1283218A110A1645083C
:102140001220C7018A110A12B2238A110A16031833
:10215000BE28861B83288A110A120930F400283011
:102160008D218A110A16861FB3288A110A121E2190
:102170008A110A16861FB3289424C7288A110A12C6
:10218000B2238A110A160318BE2845084A2083166E
:102190000313FF30D5008312031308002008F90051
:1021A0000030F8008A110A1268268A110A168A116C
:1021B0000A1283218A110A163B15BB1483160313D6
:1021C000FF30D5008312031308003B1CE9283B10A5
:1021D000EA283B14D728BB12A01DF528A0113B18F4
:1021E000F3281D21FB281421FB28A0153B1CFA28ED
:1021F0001D21FB281421D728A01C0029A01001298B
:10220000A014CE288A150A164C228A110A16D7283D
:1022100020190E29201505162010CE282011051290
:102220002014CE289424D7282A08AE002908AD000F
:102230002B08AF002C08B00008002E08AA002D08BB
:10224000A9002F08AB003008AC000800BB1A3E29DB
:102250003B1C2C291D212D291421A011BB1648300F
:10226000BD0029303B1C2D30BC008A110A12D1233D
:102270001030C90005248A110A163F29BB12D7283D
:10228000BB1A58293B1C46291D2147291421A0119E
:10229000BB164830BD0029303B1C2D30BC008A11D4
:1022A0000A12D1232030C90005248A110A1659299F
:1022B000BB12D728201C6029201005122011682984
:1022C0008A110A1265268A110A1620142011051691
:1022D000CE28A01E6D29A012CE28A016CE28201F21
:1022E00073292013CE282017CE28201E79292012EA
:1022F000CE282016CE288A110A1283210028013008
:102300003B169F290930A1290D30A1290530BB15A5
:10231000A4291530A1291930A1298A110A12832173
:102320000A30F400FC308D2116218A110A160F3074
:10233000D000A7218A150A16F0208A110A16D001AA
:10234000A729D0015014A729D0015014D014CF00D0
:10235000F800C801C901CA01CB01CC015019B92943
:102360000430C100493084008A110A12B3268A1150
:102370000A16D0187E26CD01D019CD142522C7010A
:10238000861AED298A110A12B2238A110A16031835
:10239000C22948080319E7294808013A031DE02922
:1023A000D018B1265019DF290430C100493084000B
:1023B0004F08F8008A110A12BA268A110A16242A2E
:1023C0004808023A031DE729D018B126242ACD0A6D
:1023D0004D08053A0319CD012522C7080319C02964
:1023E0004C3084004D088402C71B082A0130800746
:1023F000501C082A0008D80006305807831C012A00
:1024000080000008D80060305807031C082A8000AC
:10241000C71F172A01308002501C172AD10D8318BC
:10242000132A063080025118172A603080024808AB
:10243000033A0319C8014808FF3A031D212A023054
:10244000C8002522C701C02908004908FB00480828
:10245000FA004A08FC004B08FD00831603137B08B2
:10246000B4007A08B3007C08B5007D08B60083127A
:1024700003134D08FB004C08FA004E08FC004F08FF
:10248000FD00831603137B08B8007A08B7007C08A8
:10249000B9007D08BA00831203135108FB005008ED
:1024A000FA005208FC005308FD00831603137B0852
:1024B000BC007A08BB007C08BD007D08BE0083120A
:1024C00003133B1E742A4A08A2004908A1004B08C6
:1024D000A3004C08A4000630AC000730AB0050301D
:1024E000AA000030A9007E2ABB1D862A4A08AA003D
:1024F0004908A9004B08AB004C08AC00A0163B10E3
:102500008A110A1232256D258A110A1683160313C1
:102510003408FB003308FA003508FC003608FD00DB
:10252000831203137B08C9007A08C8007C08CA001C
:102530007D08CB00831603133808FB003708FA0028
:102540003908FC003A08FD00831203137B08CD0014
:102550007A08CC007C08CE007D08CF0083160313D8
:102560003C08FB003B08FA003D08FC003E08FD006B
:10257000831203137B08D1007A08D0007C08D200B4
:102580007D08D3004C3084000430C1008A110A1247
:1025900083210F3059218A110A1600088A110A1264
:1025A000C2218A110A168403C10BCD2A48080319D7
:1025B000F02A013A031DE42A8A110A120830F400B5
:1025C000AA308D218A110A164808023A031DF02A02
:1025D0008A110A120830F400B3308D218A110A16CC
:1025E0004D08CE000310CE0D4E0A40388A110A1253
:1025F0008B218A110A1608008A110A120A30F40087
:1026000036308D218A110A1608008A110A120A3002
:10261000F40048308D218A110A1608008A110A1226
:102620000A30F4005A308D218A110A1608008A11E6
:102630000A120A30F4006C308D218A110A16080043
:102640008A110A120A30F4007E308D218A110A168E
:1026500008008A110A120A30F40090308D218A1184
:102660000A1608008A110A120A30F400A2308D21DD
:102670008A110A1608008A110A120A30F400B430CE
:102680008D218A110A1608008A110A120A30F400F4
:10269000C6308D218A110A16201E572B8A110A1264
:1026A0000830F400F2308D218A110A1608008A11D0
:1026B0000A120830F400E0308D218A110A16080051
:1026C0008A110A120A30F400D8308D218A110A16B4
:1026D000A01A732B8A110A120930F4004C308D2194
:1026E0008A110A1608008A110A120930F4003A30D9
:1026F0008D218A110A1608008A110A120A30F40084
:10270000EA308D218A110A16201F8F2B8A110A1296
:102710000930F4004C308D218A110A1608008A1104
:102720000A120930F4003A308D218A110A16080085
:102730008A110A120A30F400FC308D218A110A161F
:1027400008008A110A120930F4003A308D218A11EA
:102750000A1608008A110A120930F4004C308D2143
:102760008A110A1608008A110A120930F4005E3034
:102770008D218A110A1608008A110A120930F40004
:10278000B8308D218A110A1608008A110A12093000
:10279000F400CA308D218A110A160800A01CD22B21
:1027A000AA23D32BA1238A110A120930F400DC30AA
:1027B0008D218A110A160800A01DE02BAA23E12B07
:1027C000A1238A110A120A30F40024308D218A11C3
:1027D0000A1608008A110A120930F40082308D218D
:1027E0008A110A1608008A110A120930F4007030A2
:1027F0008D218A110A160800201D002CAA23012C05
:10280000A1238A110A120930F40094308D218A1113
:102810000A160800201C0E2CAA230F2CA1238A11B3
:102820000A120930F400A6308D218A110A16080018
:102830008A110A120930F400EE308D218A110A162D
:102840000800BB1E252CAA23262CA1238A110A12BC
:102850000A30F40000308D218A110A160800BB1ED0
:10286000332CAA23342CA1238A110A120A30F40033
:1028700012308D218A110A1608008A110A12DE25EB
:102880008A110A16322783160313D40053028312C7
:1028900003130318532C6430E90083160313540800
:1028A000D30083120313E908031D5C2C8316031362
:1028B0005408D300831203138316031353085502DD
:1028C000831203130319782C8A110A124E308B21BC
:1028D00053304F218A110A16831603135308D5006B
:1028E000831203135E208A110A124F218A110A16DD
:1028F000080083120313390883160313D600570206
:10290000831203130319932C8A110A120B308B21A3
:10291000831603135608D700831203138A110A1271
:10292000AB238A110A1608008A110A126D25871531
:1029300083218A110A168A110A12B2238A110A16F1
:102940000318032D861F032D061F032D8A110A125B
:10295000F225EC00F025ED008A110A1614258A11E3
:102960000A120830F40082308D218A110A1683166B
:10297000031322088312031330388A110A124F21DD
:102980002E304F218316031321088312031330388E
:102990004F21C02150304F213A304F218A110A1661
:1029A0006C08C8000310C80C480C8A150A120020D5
:1029B000C800480E0F3930388A110A124F212E30C4
:1029C0004F2148080F3930384F2157304F218A1195
:1029D0000A1640308A110A128B218A110A168316B0
:1029E0000313200883120313C1001030C200FF300C
:1029F000C103C11B20308A110A124F218A110A1605
:102A0000C20BF72C9B2C8A110A12B2238A110A16C8
:102A10000318032D8A110A12871128217825832192
:102A20008A110A163B1508008A110A12CB238A1153
:102A30000A166C0803196A2DC8006D08CA004A08F6
:102A4000C8024B08031C4B0FC902031C662DC808A3
:102A50000319662D6C08CC004C08CA074D080318F2
:102A60004D0FCB07CD01CD03CD0A4808CA02490856
:102A7000031C490FCB020318342D4808CA07490824
:102A80000318490FCB07CB014A080310CA0DCB0D21
:102A90000310CA0DCB0DCA070318CB0A0310CA0DC9
:102AA000CB0DCC01CC03CC0A4808CA024908031C50
:102AB000490FCB020318532D4808CA0749080318C9
:102AC000490FCB070A304D02031C6E2D0930CC0094
:102AD000CD006E2DCC01CD01CB017E2DCB0102307E
:102AE0004D02031C782D4D03CB000930CB077A2D06
:102AF0004C08CB0012304B020318CB034B08831653
:102B00000313A000831203134C0883160313A100C0
:102B1000831203134D0883160313A20083120313B9
:102B20000800C701201805120230C6003B101530FE
:102B3000F8000830C100293084008A110A12B32637
:102B40008A110A163D248A110A120830F4009630C0
:102B50008D218A110A16831603132D08AB002C0849
:102B6000AA00831203138A110A123023201FBA2DE0
:102B70002724BB2DD6233225282178258A110A1631
:102B80003D24831603132D082B02031DC92D2C0889
:102B90002A020000831203130318D42D8316031393
:102BA000A90A83120313D92D83160313A9018312D3
:102BB0000313831603130330290283120313031C28
:102BC000052E201805162830C3003D248316031354
:102BD0002D08AB002C08AA00831203138A110A12D5
:102BE0001E218A110A16C708031D2A2E061F2A2E27
:102BF000861F2A2E861E2A2EC30BE52D831603134D
:102C0000A9018312031320180512831603132D083C
:102C1000AB002C08AA0083120313C708031D2A2E39
:102C2000061F2A2E861F2A2E861E2A2E30082C02C8
:102C3000031D262E2F082B02031D252E2E082A02E7
:102C4000031D242E2D082902000000000000031C93
:102C5000B32D912D201805168A110A120830F400A0
:102C6000A0308D218A110A16061F342E861F342E9D
:102C7000861E342E20180512C7010800C501C701A1
:102C80008A110A1283218A110A168A110A12B223A2
:102C90008A110A160318452E450800204708031913
:102CA0006D2E8A110A1265268A110A16C71B5E2E1E
:102CB000C50A45080C3A0319C501652EC503450828
:102CC000FF3A031D652E0B30C5008A110A128321BD
:102CD0008A110A1645080020C7018A110A12B22378
:102CE0008A110A16031C4E2E8A110A12B2238A1167
:102CF0000A160318742E450838203E2E4A08D900BB
:102D00004908D8004B08DA004C08DB002030C1002D
:102D1000C901CA01CB01CC01493084000430C20092
:102D200000080F39CD0005304D02031C992E0330E9
:102D300080070008F039CD0050304D02031CA22E50
:102D400030308007840AC20B902E0310D80DD90DA5
:102D5000DA0DDB0DC90DCA0DCB0DCC0DC10B8C2EC0
:102D600008004A08D9004908D8004B08DA004C0886
:102D7000DB00C901CA01CB01CC012030C200031025
:102D8000DB0CDA0CD90CD80CCC0CCB0CCA0CC90C53
:102D9000583084000430C100801FD02E30308002B3
:102DA000801DD42E03308002840AC10BCC2EC20BAE
:102DB000BF2E0800C101C801C901C10A0310CD1B03
:102DC000F12ECC0DCD0D4D084B02031DE92E4C0804
:102DD0004A0200000318DD2EC801C9010310CD0C02
:102DE000CC0C4D084B02031DF72E4C084A02000084
:102DF000031C002F4C08CA024D08031C4D0FCB02C8
:102E0000C80DC90DC10BEE2E0800C801C901103054
:102E1000C1004C30BC004830BD00CF010310CB0CCA
:102E2000CA0C031C2C2F0230C2003C08840000088E
:102E3000CE003D0884004F08CF018007031C222FDD
:102E40000130CF004E088007031C282F0130CF002F
:102E5000BC0ABD0AC20B152F0310CC0DCD0DC10B42
:102E6000092F08008A110A12DE258A110A16831614
:102E700003132D08FB002C08FA00831203137B08B0
:102E8000CB007A08CA00831603132F08FB002E0814
:102E9000FA00831203137B08CD007A08CC004D089A
:102EA0004B02031D552F4C084A020000031C832FC0
:102EB0004C08CA024D08031C4D0FCB020030CD0058
:102EC0000A30CC0005274908CB004808CA00831601
:102ED00003133108FB003008FA00831203137B0848
:102EE000CD007A08CC00CD08031D792FCC0803193A
:102EF000812FDA264808F039031D812F4808C908B8
:0A2F0000031D0F3008000301080054
:103000008207183418341834183418341834183423
:103010001834183482072834383448345834683423
:10302000783488349834A8348207C434C83482078A
:1030300018341834820718341834183418348207B6
:10304000B834BC34C034C034030000005000000069
:10305000000000008100010000000000810001006C
:103060000000000081000100000050008400010009
:10307000000000005600030000000000560003009E
:103080000000000050000300000000005700030093
:10309000000000000300070000000000030007001C
:1030A00000000000000007000000500003000700BF
:1030B000000060001100100000006000110010000E
:1030C000000000000A001000000050001200110073
:1030D00000000000060014000000000006001400BC
:1030E0000000000000001400000050000600140062
:1030F00000006000090018000000600009001800CE
:1031000000008000060018000000000013001800F6
:103110000000000006002100000000000600210061
:103120000000000000002100000050000600210007
:103130000000000006002800000000000600280033
:1031400000000000000028000000500006002800D9
:10315000C4008A005B000000C4008A005B0000001D
:10316000C4008A005B0000003400BA005700000071
:10317000180005003D000000EC00BE0086000000C5
:103180004400FD004A000000B80063005E00050036
:10319000C0004F002F000B009000B100170001008D
:1031A0000000000000000000E000670035000000A3
:1031B000A0002E0063000000A0003700A000000067
:1031C000A0004000DD000000600007000B000100CF
:1031D000D0003F00440001002000D700750001002E
:1031E0004A08D1004908D0004A08CF004908CE005B
:1031F0004E08001BFE280739CE0000290830CE00FB
:103200000A20C9004E080020CA001030C80009304A
:10321000CB004B215008CE00CE0CCE0CCE0CCE0CE9
:103220004E0C0139CE001420C9004E081720CA00E8
:103230000430C8000130CB004B215008CE00CE0D29
:10324000CE0D4E0D0339CE001F20C9004E081A20A6
:10325000CA000430C8000530CB004B210330C80041
:10326000D0194816501AC816501B4817F900F80113
:103270008A110A1268261D30F8000330F90068260A
:10328000F80AF9016826F80A5030F9006826F80AA9
:10329000F901682600284B08F80049088312031733
:1032A0008D00831203134A08831203178F008316BD
:1032B00003178C178B138B1B57290C14000000006D
:1032C0008B17831203170C0883120313F900831260
:1032D00003138A110A1268268A150A168312031329
:1032E000F80A83120313C90F7A29831203178F0A6E
:1032F000831203134908831203178D0083120313EB
:10330000C80B572908008A110A120830F400BC3093
:103310008D218A150A168A110A12B2238A150A16F5
:1033200003188B298A110A12DE258A150A168316BC
:1033300003132D08FB002C08FA00831203137B08EB
:10334000C9007A08C80040308A110A128B218A15F8
:103350000A1649088A110A12C2218A150A16480853
:103360008A110A12C2218A150A168A110A12B22378
:103370008A150A16031C9229831603132D08FB00D5
:103380002C08FA002D08AF002C08AE00831203139E
:103390000230C1007A3084001D30F8008A110A1210
:1033A000BA268A150A168A110A120830F400CE309D
:1033B0008D218A150A168A110A12B2238A150A1655
:1033C0000318DB298A110A12DE25831603132D0840
:1033D000FB002C08FA00831203137B08C9007A084B
:1033E000C80040308B214908C2214808C221B223BD
:1033F0008A150A16031CE22940308A110A128B2111
:10340000831603132D08FB002C08FA002F08FD007B
:103410002E08FC00831203137B08CB007A08CA0035
:103420007D08CD007C08CC004C08CA024D08031C66
:103430004D0FCB024B08C2214A08C2210030CD00FB
:103440000A30CC008A110A1605278A150A1649087F
:103450008A110A12C2214808C2218A150A1649088F
:10346000CB004808CA000030CD000930CC008A11DA
:103470000A16DA268A150A1649088A110A12C22182
:103480004808C2210230C100483084001F30F800D3
:10349000BA268A110A1673283908000AC500C7011E
:1034A0008A110A1283218A150A168A110A12B22376
:1034B0008A150A160318552A45088A110A16262065
:1034C0008A150A1647080319852A8A110A126526E1
:1034D0008A150A16C71B722AC50A4508093A031934
:1034E000C501792AC5034508FF3A031D792A08302A
:1034F000C5008A110A1283218A150A1645088A1105
:103500000A1626208A150A16C7018A110A12B22342
:103510008A150A16031C622A8A110A12B2238A1516
:103520000A1603188C2A4508003E031D982A080035
:103530000003B9009C224C2A0430C800D030C900D6
:103540001830CA003908CB00CB0DCB0DCB0D4B0882
:10355000C907353084004908831203178D00831290
:1035600003134A08831203178F00831603178C175F
:103570008B138B1BB52A0C14000000008B178312D1
:1035800003170C08831203138000840AC90FCD2A85
:10359000831203178F0A8312031349088312031738
:1035A0008D0083120313C80BB52A84013530BC008B
:1035B0003130BD008A110A12D12305248A110A165E
:1035C0003530BC002530BD008A110A12D1235624A3
:0A35D0008A110A160800000000002E
:02400E00723FFF
:10420000FF00FF00FF00FF00FF00FF00FF00FF00B6
:10421000FF00FF00FF00FF00FF00FF00FF00FF00A6
:10422000FF00FF00FF00FF00FF00FF00FF00FF0096
:10423000FF00FF00FF00FF00FF00FF00FF00FF0086
:02424000FF007D
:00000001FF
