:020000040000FA
:020000000528D1
:0800080090293B2128217621FB
:10001000031C0728A500803025020319142881300D
:10002000250203198F28072869217621031C072838
:10003000A600C12000302602031D202821148C2890
:1000400001302602031D2628A1148C280230260226
:10005000031D2C2821158C2803302602031D32286D
:10006000A1158C2804302602031D382821168C285F
:1000700005302602031D3E28A1168C2806302602D4
:10008000031D442821178C2807302602031D4A2807
:10009000A1178C2808302602031D502822148C2812
:1000A00009302602031D5628A2148C280A30260285
:1000B000031D5C2822158C280B302602031D6228A4
:1000C000A2158C280C302602031D682822168C28C5
:1000D0000D302602031D6E28A2168C280E30260233
:1000E000031D742822178C280F302602031D7A283E
:1000F000A2178C2810302602031D802823148C2878
:1001000011302602031D8628A3148C2812302602E3
:10011000031D8E2823158C28C720C028C0286921DC
:100120007621031C0728A600C52000302602031DE7
:100130009B28A401BF2801302602031DA1282414F6
:10014000BF2802302602031DA728A414BF280330AD
:100150002602031DAD282415BF2804302602031DE6
:10016000B328A415BF2805302602031DB92824167C
:10017000BF2806302602031DC028A416BF28C720AA
:100180000728A101A201A3010800A4010800211C65
:10019000061021180614A11C8610A1188614211D12
:1001A000061121190615A11D8611A1198615211EFA
:1001B0000612211A0616A11E8612A11A8616211FE2
:1001C0000613211B0617A11F8613A11B8617221CCD
:1001D000071022180714A21C8710A2188714221DCA
:1001E000071122190715A21D8711A2198715221EB2
:1001F0000712221A0716A21E8712A21A8716221F9A
:100200000810221B0814A21F8810A21B8814231C8C
:10021000081123180815A31C8811A3188815241C7D
:10022000081224180816A41C8812A4188816241D65
:10023000081324190817A41D8813A4198817241E4D
:100240000910241A0914A41E8910A41A891408007C
:100250001930831603139900181598168312031387
:100260001816981783160313A230A100A0008C164D
:1002700083120313080083018316031300308100E7
:1002800000308C0000308D00EF308500003086009B
:1002900080308700003088000030890006309F00E1
:1002A0008312031300308500003086000030870081
:1002B0000030880000308900C0308B000030900092
:1002C000203084008001840A2A300402031C622941
:1002D00008000530A9000230A8004B30A700A70B8A
:1002E0006F29A80B6F29A90B6B290800831603132C
:1002F0002108200283120313031D80290310080024
:1003000083160313A00AE3302002031D8929A230BB
:10031000A0002008840000088312031303140800BF
:10032000F200030E8301F5000A08F4008A010408B4
:10033000F300831203138C1EB3291A08981CA429F6
:100340001A0818121816992983160313F600A10A21
:10035000E3302102031DAE29A230A1002108840050
:100360007608800099297308840074088A00750E45
:080370008300F20E720E090079
:02400E00723FFF
:00000001FF
