:020000040000FA
:02000000CA290B
:08000800F000030E8301F1007A
:100010000A08F2008A0183130408F3008B1C3128BC
:1000200083160313010883120313F500751F1E289E
:1000300086181C28BE032328BE0A2328861C2228D3
:10004000BE032328BE0A751F2B2883160313011332
:10005000831203133028831603130117831203132B
:100060008B100C1C3E280C10DF08031DDF03E0087A
:10007000031DE003D9308F0000308E008C1C442813
:100080008C10E108031DE1030B1D47280B110D1A0D
:100090000D127308840072088A00710E8300F00E3E
:1000A000700E09000F398207303431343234333462
:1000B00034343534363437343834393441344234D6
:1000C00043344434453446340F398207BE34B434A3
:1000D000AA34A03496348C34823478346E34643448
:1000E0005A34503446343C343234283483160313A3
:1000F000280883120313B800B80CB80C380C1F3949
:100100008207853478346D3464345C34563450342A
:100110004B34473443343F343C343934373434344B
:10012000323430342E342C342B34293428342734D0
:1001300026342434233422342134203420341F3410
:100140001E34B800B80CB80C380C1F3982070934BB
:100150001034113412341334143415341634173463
:1001600018341934203421342234233424342534EF
:10017000263427342834293430343134323433347B
:100180003434353436343734383439344034BE01BD
:100190000130BB000A30B800DD20031CDC2821211F
:1001A000B80BCC2884210830F40092308E21023024
:1001B000BB00DD200318D72808000314861A03109B
:1001C0000800830183160313403081002F3085001F
:1001D000E33086000030870002309F0003308C003F
:1001E00010308D0083120313D0308B000030850057
:1001F000003086000030870001309000013092000E
:100200002030840080016530040203190929840A22
:100210000229D9308F0000308E008316031301307D
:10022000D500D700D301D401831203130800FA309C
:100230002A21FA302A21FA302A21FA302A29643078
:100240002A2932302A290A302A2905302A2903305E
:100250002A290130B500B50AB50B2F290800133043
:10026000B600B60B34292C291030B700B70B36294D
:10027000312907100F302A2120306121803061217F
:1002800005302A21203061218030612101302A216E
:1002900006305A210C305A2114305A21842108008A
:1002A000F60067217608F03904386121760EF039BE
:1002B00004386129F60067217608F0396121760E4D
:1002C000F0398719083887000714071008008717C6
:1002D00083160313803087008312031307118714DA
:1002E000B11307140000871FB1170710000007148F
:1002F00000000710B11F7029831603130030870018
:10030000831203138710080001305A2902305A293A
:1003100080305A29C0305A2980385A29831203174D
:100320008D0074088F00831603178C178B138B1B9B
:1003300096290C14000000008B17831203170C0879
:10034000831203138C21831203178D0A03198F0A5A
:10035000831603178C178B138B1BAB290C1400000F
:1003600000008B17831203170C0883120313FF3945
:10037000031908005021831203178D0A03198F0AED
:10038000A82920305029F700770E522050217708F5
:1003900052205029E1202525051639210830F40086
:1003A00060308E210830F40042308E210730B800D2
:1003B0001D212E305021B80BD8291A26200A031DE2
:1003C000F7290230B8000930F40006308E210930D8
:1003D000F40018308E21172108305A2117210C30D3
:1003E0005A211721B80BEC298A110A166E29861A90
:1003F0000E2A84210830F40072308E210830F40077
:100400004E308E2117211721172117211721861E03
:10041000072A8A110A16162E8A110A128421201D13
:100420000512E625B115BC010230BD001030E20016
:100430003215B2143114BE080319332A3110E625DF
:100440003E08BE1B2A2ABE017F39C8008023C80B84
:10045000262A312A3E09BE01013EC800C323C80B2B
:100460002E2AB2143215321D392A31101323F122EB
:100470003211B21C422A3110B324871DF924871986
:10048000EE24B210861A5C2A311020180516C720F7
:100490003B08013A031D552ABD0A3D08043A031DD5
:1004A000532A0130BD0032155A2A8A110A165F20DC
:1004B0008A110A122018E625A01C792A061FB114F9
:1004C000861F3115B11C6C2A3110EE248715B42516
:1004D0008711F924B425B110311D852A3110EE247D
:1004E0008715B425B425B4258711F924B425311115
:1004F000852A061B812A8719852A3110EE24871543
:10050000852A871D852AF9248711DF080319902A77
:10051000B11D972A20180516B11131163215972AE8
:10052000311E972A20180512B11531123215311FCC
:100530009E2AE6251323F12231103113311CF02AB3
:100540006208013A031DA92A8A110A1635248A1164
:100550000A126208023A031DB22A8A110A16F92306
:100560008A110A126208033A031DDF2A8316031355
:10057000A50DA60DA50DA60DA50DA60DA50DA60DE7
:100580002608A3002708A6020319D92A2308A600D3
:10059000270AA6020319D92A2308A6002703A602C0
:1005A0000319D92A8312031331178316031323085F
:1005B000A700A301A401A501A60183120313E20B66
:1005C000E32A1030E200752583160313A300A4016B
:1005D0002308A50724080318240FA6078312031372
:1005E0001A2AA01C002B311F002B0830F4008B307E
:1005F0008E217525A120C321C121C121C12108005F
:1006000040308C21B21E062B78300E2B4130321C2C
:100610004230A01D0E2B6130321C623050212C3034
:10062000321C3030252B03018C21B21E192B723065
:10063000212B413032184230A01D212B613032185D
:10064000623050212C303218303084002017000ED8
:100650005223000852232E3050218403000E5223CF
:10066000000852238403000E52232E3050213D08EF
:10067000033A03194B2B000852233D08023A031991
:100680004D2B8403000E52233D08013A03194F2BD2
:1006900000085223512B203050212030502120308F
:1006A000502108000F39031D592B201F592B2030D2
:1006B0005B2B3038201350290A30B8000608203947
:1006C000B9002921060820393906031D5C2BB80B17
:1006D0005E2B39082039031D712B0130BB00031438
:1006E000742B0030BB0003100800C301C401C50116
:1006F000C601C701C801BF01C001C101C201080094
:100700003D0803199E2B013A0319992B3D08023A23
:100710000319942BA6247B231030C000A12BA62400
:100720007B230130C000A12BA6247B235030BF00C7
:10073000A12BA6247B231030BF00A12BA6247B2352
:10074000BF0A0430C300330884000008C400340822
:1007500084000008C40706304407831CB02BC40083
:1007600060304407031CBA2BC40033088400840A99
:10077000800A84033308840044088000B30AB40A62
:10078000C30BA32B08003D080319E12B013A031901
:10079000DC2B3D08023A0319D72BA6247B2310300B
:1007A000C000E42BA6247B230130C000E42BA62448
:1007B0007B235030BF00E42BA6247B231030BF00E6
:1007C000E42BA6247B23BF0A0430C3003308840033
:1007D0000008C400340884000008C402C50D831852
:1007E000F32B0630C4024518FA2B6030C402840A89
:1007F000800A84033308840044088000B30AB40AE2
:10080000C30BE62B08007523330884000008BF00E3
:10081000840A0008C000840A0008C100840A000895
:10082000C2002030C7000310C20CC10CC00CBF0CAA
:10083000C60CC50CC40CC30C3F3084000430C80087
:10084000801F242C30308002801D282C0330800231
:10085000840AC80B202CC70B132C08002608C000E4
:100860002508BF002708C1002808C2003F08C307A9
:1008700040080318400FC40741080318410FC5077B
:1008800042080318420FC60708002608C0002508C2
:10089000BF002708C1002808C2003F08C302400863
:1008A000031C400FC4024108031C410FC50242084B
:1008B000031C420FC60208002108CF002208D00006
:1008C0002308D1002408D2002030C7004F30B300E5
:1008D0005730B400C0010310C60CC50CC40CC30CC7
:1008E000031C8B2C0830C100330884000008BF00B3
:1008F000340884004008C0018007031C812C0130AB
:10090000C0003F088007031C872C0130C000B30AD9
:10091000B40AC10B742C0310CF0DD00DD10DD20D24
:10092000D30DD40DD50DD60DC70B662C08003F3066
:10093000840080015E3004020319A02C840A992CE3
:100940000800A019AE2CB21AAE2CAA2C3F30B4006D
:10095000B21AAE2C293032182D30B12C2930321C6D
:100960002D30B30008009724AA240324201E452418
:10097000201A2E245C245B08FB005A08FA005C084D
:10098000FC005D08FD00831603137B08C6007A088F
:10099000C5007C08C7007D08C80083120313972494
:1009A000A1240324A01AD82C201E4524201A2E246A
:1009B0005C245B08FB005A08FA005C08FC005D0838
:1009C000FD00831603137B08CA007A08C9007C085F
:1009D000CB007D08CC008312031308008316031399
:1009E0004A08D0004908CF004B08D1004C08D2007B
:1009F000032D831603134608D0004508CF0047088F
:100A0000D1004808D200831203133B258316031339
:100A10005008CE004F08CD00CE134E17831203139B
:100A2000412583160313CF0DD00DD10DD20DCF0D5F
:100A3000D00DD10DD20D5208CE005108CD00CE13ED
:100A40004E178312031341250800831203133B251D
:100A5000831603134430CE00BB30CD008312031342
:100A60004125831603134730CE00AE30CD008312EC
:100A7000031341250800831603132030CE000030F5
:100A8000CD00831203130611831603134E0883123D
:100A900003135225831603134D08831203135225A3
:100AA00006150800BF000830B800BF0D031C061271
:100AB0000318061686118615B80B552D08008316E7
:100AC00003139F17831203136130762583160313D4
:100AD000AD001E08AC009F138312031308005930A9
:100AE000762D5130762D4930762D41309F000130E2
:100AF0002A211F151F197A2D1E080800C8009A30D8
:100B0000C7004808C801C815C501C6010310C50DB6
:100B1000C60DC70D031C8F2DC5070318C60AC80BC9
:100B2000862D0030031046070800C7000830C800B3
:100B3000C501C60145080F39C40005304402031C35
:100B4000A32D0330C5074508F039C40050304402D6
:100B5000031CAC2D3030C5070310C70DC50DC60DE5
:100B6000C80B9A2D45080800752583160313A800A5
:100B7000831203137620E100F230871DF2308316D2
:100B8000031300009200831203131215061FB11401
:100B9000861F3115E108031DC62D12110800C8007B
:100BA0002A30C7004808C801C815C501C60103108E
:100BB000C50DC60DC70D031CE02DC5070318C60AD9
:100BC000C80BD72D0930031046070800C830DF00D6
:100BD0000800831603178C18EB2D83120313780873
:100BE000831203178D0083120313790883120317EE
:100BF0008C00831603178C130C158B138B1BFD2D88
:100C000055308D00AA308D008C148C18052E8B1752
:100C10000C118312031308007808831203178D0048
:100C2000831603178C130C14831203170C088312FA
:100C3000031308001130B80020308400F801342676
:100C40000430B8007A3084001930F8003426831656
:100C500003137B08AF007A08AE007C08B0007D0863
:100C6000B1008312031308000C268000840AF80ADE
:100C7000B80B342E08000008F900E925840AF80AA8
:060C8000B80B3B2E08003A
:101000003F398207003400340034013401340134A4
:10101000023403340334043405340634063407340C
:10102000083409341034113412341434153417349C
:1010300018341934203422342434253427343034FD
:10104000323434343534373439344034433445342D
:101050004734503452345434563458346034633442
:101060006534673469347234743476347834813456
:10107000833485348734903492349434963499345C
:10108000993499344034563431342E343034383431
:10109000203469346E346934743400344034563446
:1010A00031342E3430343834203420342034313448
:1010B00036342E34303434342E3430343634003434
:1010C000003444344C342D345134523450342D34A3
:1010D00041344734203455346E3469344434443414
:1010E0005334003400344434443453342D345634AF
:1010F00046344F3428346334293444344C34343443
:101100004A3441344C34003400345334573452346C
:101110003A34203400344034573470344D343A3447
:101120002034003400344D3465346E34753400346A
:1011300040347334633461346E346E3469346E34E5
:1011400067340034403462347234653461346B3453
:10115000203420342034003409347334613476343C
:10116000653420342034203400340934633461344D
:101170006E34633465346C342034003400345334BA
:101180003D343034203420343034203475345634F7
:1011900020342034203428346F346B342934003424
:1011A000003453343D343934203435343034203431
:1011B0007534563420342034203428346F346B3462
:1011C000293400344034203420342034563446341A
:1011D0004F342B345A3446342034203420342034D5
:1011E000203420342034003440342034203420345F
:1011F000563446344F342D345A3446342034203457
:101200002034203420342034203400340034663438
:101210006934723473347434203469346E3469340C
:1012200074342034203420342034203420340034EA
:10123000403470346C346534613473346534203434
:1012400069346E3470347534743420346E347234CE
:10125000213400340034743475346E3469346E349F
:101260006734203420342034203420342034203497
:1012700020342034203400344034203420342034CE
:101280006F346E3420342034203420342034203421
:1012900020342034203420342034003440342034AE
:1012A000203420346F3466346634203420342034C3
:1012B00020342034203420342034203420340034AE
:1012C0000034203430342034623472346534613474
:1012D0006B34203420342034203420342034203423
:1012E0002034003400342034313420345634463431
:1012F0004F34203441342F344234203420342034CD
:10130000203420342034003400342034323420346B
:101310006C34693467346834743420346F346E3418
:101320002F346F3466346634203400340034203473
:10133000333420346C346934673468347434203482
:101340006134753474346F342034203420340034E4
:1013500000342034343420347334633461346E34D4
:1013600020342034203420342034203420342034DD
:1013700020340034003420343534203453344534A0
:101380005434553450342034203420342034203424
:1013900020342034203400340034203436342034D7
:1013A0006B3465347934653472342034203420341D
:1013B00020342034203420342034003400342034CD
:1013C00037342034743475346E346534203420342A
:1013D000203420342034203420342034203400348D
:1013E0000034203438342034783469347434203470
:1013F00031346B34203420342034203420342034F1
:1014000020340034003420343934203478346934C2
:101410007434203432346B3420342034203420347B
:10142000203420342034003400343134303420343B
:10143000723469347434203420342034203420341D
:10144000203420342034203420340034003420343C
:10145000303420345334653474347534703420346B
:1014600062347234653461346B3420342034003497
:1014700000342034313420344434443453342D3453
:10148000543461346B3474342034203420342034A8
:10149000203400340034203432342034563446347E
:1014A0004F342D3441342034283448347A342934AC
:1014B00020342034203400340034203433342034B9
:1014C000563446344F342D34423420342834483492
:1014D0007A34293420342034203400340034203449
:1014E000343420345A3446342034283448347A345E
:1014F0002934203420342034203420342034003463
:1015000000342034353420347334633461346E3421
:101510002D3462346534673469346E3420342034B9
:1015200020340034003420343634203473346334AF
:1015300061346E342D3465346E3464342034203498
:101540002034203420340034003420343734203424
:1015500053342D344D34653474346534723420344E
:1015600065346934633468342E34003400342034F4
:1015700038342034563446344F3420342B342F340E
:101580002D3420345A34463420342034203400346E
:1015900000342034393420345434583420342B343B
:1015A0002F342D3420345A3446342034203420341F
:1015B0002034003400343134303420346434653421
:1015C00066342E34203463346F346E3466346934B8
:0815D00067342034203400349C
:102000000F398207DD2AE62AEF2AF82A012B0A2B4C
:10201000132B1C2B252B412B5D2B782B782B782B0E
:10202000782B782B0F398207782BAF2BB82BC62B48
:10203000812B8A2B932BD42BDD2BEB2BA12B782BF5
:10204000782B782B782B782B782B0F3982075C290B
:1020500060296329652967296A296C295B28562923
:1020600050296E29C328C328C328C3280F398207E3
:10207000C328D228EF2841296E2D162EE928F928E9
:102080000D292729D828C328C328C328C328C32833
:10209000C3280F3982073034313432343334343486
:1020A000353436343734383439342B342B342B34FC
:1020B0002B342B342B348A150A1645295C29BE0192
:1020C0008A110A1284218A110A168A110A125C23C3
:1020D0008A110A16031865283C0812203E080319C5
:1020E0008D288A110A12E6258A110A16BE1B7E283F
:1020F000BC0A3C080B3A0319BC018528BC033C0808
:10210000FF3A031D85280A30BC008A110A12842177
:102110008A110A163C081220BE018A110A125C2399
:102120008A110A160318A928861B6E288A110A121A
:102130000930F4002A308E218A110A16861F9E2843
:102140008A110A121F218A110A16861F9E287224DC
:10215000B2288A110A125C238A110A160318A928C8
:102160003C08362083160313FF30D700D5008312B6
:10217000031308002008F9000030F8008A110A1241
:10218000E9258A110A168A110A1284218A110A166F
:102190003215B21483160313FF30D700D500831213
:1021A00003130800321CD6283210D7283214C32853
:1021B000B212A01DE228A0113218E0280421E8285C
:1021C000FB20E828A015321CE7280421E828FB2082
:1021D000C328A01CED28A010EE28A014BA282019AE
:1021E000F528201505162010BA28201105122014F4
:1021F000BA287224C3282A08AE002908AD002B088B
:10220000AF002C08B00008002E08AA002D08A90075
:102210002F08AB003008AC000800B21A2529321C88
:10222000132904211429FB20A011B2163F30B40059
:102230002930321C2D30B3008A110A127B23103052
:10224000C000A1238A110A162629B212C328B21A85
:102250003F29321C2D2904212E29FB20A011B21662
:102260003F30B4002930321C2D30B3008A110A12DD
:102270007B232030C000A1238A110A164029B21204
:10228000C328201C47292010051220114F298A112C
:102290000A12E6258A110A16201420110516BA28FA
:1022A000A01E5429A012BA28A016BA28201E5A2906
:1022B0002012BA282016BA288A110A12842100286E
:1022C000013032168029093082290D3082290530EB
:1022D000B215852911308229153082298A110A12F6
:1022E00084210A30F400DA308E2117218A110A166F
:1022F0000F30C70088218A150A16BA208A110A16DB
:10230000C7018829C70147148829C7014714C71482
:10231000C600F800BF01C001C101C201C3014719D5
:102320009A290430B800403084008A110A123426F9
:102330008A110A16C7185626C401C719C4140622E2
:10234000BE01861ACE298A110A125C238A110A1646
:102350000318A3293F080319C8293F08013A031DA0
:10236000C129C71889264719C0290430B800403050
:1023700084004608F8008A110A123B268A110A16C0
:10238000052A3F08023A031DC829C7188926052ACD
:10239000C40A4408053A0319C4010622BE080319F9
:1023A000A1294330840044088402BE1BE92901307E
:1023B0008007471CE9290008CF0006304F07831C1F
:1023C000E22980000008CF0060304F07031CE92994
:1023D0008000BE1FF82901308002471CF829C80D73
:1023E0008318F429063080024818F82960308002EA
:1023F0003F08033A0319BF013F08FF3A031D022AB1
:102400000230BF000622BE01A12908004008FB00DF
:102410003F08FA004108FC004208FD008316031340
:102420007B08B4007A08B3007C08B5007D08B600CC
:10243000831203134408FB004308FA004508FC001C
:102440004608FD00831603137B08B8007A08B7001E
:102450007C08B9007D08BA00831203134808FB000A
:102460004708FA004908FC004A08FD0083160313D8
:102470007B08BC007A08BB007C08BD007D08BE005C
:1024800083120313321E552A4108A2004008A100FE
:102490004208A3004308A4000630AC000730AB009C
:1024A0005030AA000030A9005F2AB21D672A4108F7
:1024B000AA004008A9004208AB004308AC00A016DF
:1024C00032108A110A12B324EE248A110A168316D6
:1024D00003133408FB003308FA003508FC00360803
:1024E000FD00831203137B08C0007A08BF007C083C
:1024F000C1007D08C200831603133808FB003708AB
:10250000FA003908FC003A08FD00831203137B0827
:10251000C4007A08C3007C08C5007D08C600831685
:1025200003133C08FB003B08FA003D08FC003E0892
:10253000FD00831203137B08C8007A08C7007C08DB
:10254000C9007D08CA00433084000430B8008A11F5
:102550000A1284210F305A218A110A1600088A11A2
:102560000A12C3218A110A168403B80BAE2A3F0847
:102570000319D12A013A031DC52A8A110A1208300B
:10258000F400AC308E218A110A163F08023A031D6E
:10259000D12A8A110A120830F400B5308E218A112E
:1025A0000A164408C5000310C50D450A40388A11B3
:1025B0000A128C218A110A1608008A110A120A309E
:1025C000F40026308E218A110A1608008A110A1298
:1025D0000A30F40038308E218A110A1608008A1158
:1025E0000A120A30F4004A308E218A110A160800B5
:1025F0008A110A120A30F4005C308E218A110A1600
:1026000008008A110A120A30F4006E308E218A11F5
:102610000A1608008A110A120A30F40080308E214E
:102620008A110A1608008A110A120A30F400923040
:102630008E218A110A1608008A110A120A30F40043
:10264000A4308E218A110A1608008A110A120A3053
:10265000F400B6308E218A110A16201E382B8A11FA
:102660000A120830F400F4308E218A110A1608008C
:102670008A110A120830F400E2308E218A110A16FB
:1026800008008A110A120A30F400C8308E218A111B
:102690000A16A01A542B8A110A120930F4004E307F
:1026A0008E218A110A1608008A110A120930F400D4
:1026B0003C308E218A110A1608008A110A120A304B
:1026C000F400DA308E218A110A1608008A110A12E3
:1026D0000930F4003C308E218A110A1608008A1154
:1026E0000A120930F4004E308E218A110A160800B1
:1026F0008A110A120930F40060308E218A110A16FC
:1027000008008A110A120930F400A8308E218A11BB
:102710000A1608008A110A120930F400BA308E2114
:102720008A110A160800A01C972B6F23982B66238A
:102730008A110A120930F400CC308E218A110A164F
:102740000800A01DA52B6F23A62B66238A110A1251
:102750000A30F40014308E218A110A1608008A11FA
:102760000A120930F40072308E218A110A1608000C
:10277000201DBC2B6F23BD2B66238A110A12093042
:10278000F40084308E218A110A160800201CCA2BFE
:102790006F23CB2B66238A110A120930F40096307E
:1027A0008E218A110A1608008A110A120930F400D3
:1027B000DE308E218A110A160800B21EE12B6F232B
:1027C000E22B66238A110A120930F400F0308E21C0
:1027D0008A110A160800B21EEF2B6F23F02B662316
:1027E0008A110A120A30F40002308E218A110A1668
:1027F00008008A110A125F258A110A160A27831611
:102800000313D40053028312031303180F2C6430F4
:10281000E000831603135408D30083120313E00867
:10282000031D182C831603135408D30083120313BB
:102830008316031353085502831203130319342C10
:102840008A110A124E308C21533050218A110A16F7
:10285000831603135308D5008312031349208A11EA
:102860000A1250218A110A1608008A110A126F25CD
:102870007E258A110A1683160313D6005702831287
:1028800003130319712C8A110A120B308C21831641
:1028900003135608D7008312031395258A110A16CD
:1028A00046080F39031D5A2C8A110A12C1218A11B8
:1028B0000A16612C46088A110A12522050218A11E8
:1028C0000A168A110A124508F700770E5220502185
:1028D0002E305021770852205021563050218A1135
:1028E0000A1608008A110A12EE24871584218A111B
:1028F0000A168A110A125C238A110A160318E12C9F
:10290000861FE12C061FE12C8A110A127325E300B1
:102910007125E4008A110A16F1248A110A1208307E
:10292000F40084308E218A110A16831603132208BC
:102930008312031330388A110A1250212E3050218D
:102940008316031321088312031330385021C12149
:10295000503050213A3050218A110A166308BF00C6
:102960000310BF0C3F0C8A150A120020BF003F0E57
:102970000F3930388A110A1250212E3050213F0869
:102980000F3930385021573050218A110A16403003
:102990008A110A128C218A110A1683160313200841
:1029A00083120313B8001030B900FF30B803B81B0E
:1029B00020308A110A1250218A110A16B90BD52C1F
:1029C000792C8A110A125C238A110A160318E12C49
:1029D0008A110A128711F92484218A110A163215E4
:1029E00008008A110A1275238A110A16630803194E
:1029F000472DBF006408C1004108BF024208031C04
:102A0000420FC002031C432DBF080319432D630866
:102A1000C3004308C10744080318440FC207C40198
:102A2000C403C40A3F08C1024008031C400FC2028D
:102A30000318112D3F08C10740080318400FC207B3
:102A4000C20141080310C10DC20D0310C10DC20D1A
:102A5000C1070318C20A0310C10DC20DC301C3038D
:102A6000C30A3F08C1024008031C400FC2020318FA
:102A7000302D3F08C10740080318400FC2070A3035
:102A80004402031C4B2D0930C300C4004B2DC3016D
:102A9000C401C2015B2DC20102304402031C552D4A
:102AA0004403C2000930C207572D4308C200123048
:102AB00042020318C203420883160313A0008312C4
:102AC0000313430883160313A1008312031344085E
:102AD00083160313A200831203130800BE012018FB
:102AE00005120230BD0032101130F8000830B80075
:102AF000293084008A110A1234268A110A16F92311
:102B00008A110A120830F40098308E218A110A16B0
:102B1000831603132D08AB002C08AA00831203139D
:102B20008A110A1213238023B324F9248A110A1666
:102B3000F923831603132D082B02031DA12D2C0846
:102B40002A020000831203130318AC2D831603130B
:102B5000A90A83120313B12D83160313A90183124B
:102B60000313831603130330290283120313031C78
:102B7000DD2D201805162830BA00F923831603131B
:102B80002D08AB002C08AA00831203138A110A1225
:102B90001F218A110A16BE08031D022E061F022ECF
:102BA000861F022E861E022EBA0BBD2D831603131E
:102BB000A9018312031320180512831603132D088D
:102BC000AB002C08AA0083120313BE08031D022EBB
:102BD000061F022E861F022E861E022E30082C0291
:102BE000031DFE2D2F082B02031DFD2D2E082A028A
:102BF000031DFC2D2D082902000000000000031C0D
:102C0000902D6E2D201805168A110A120830F40036
:102C1000A2308E218A110A16061F0C2E861F0C2E3A
:102C2000861E0C2E20180512BE010800BC01BE0134
:102C30008A110A1284218A110A168A110A125C2347
:102C40008A110A1603181D2E3C0800203E0803199D
:102C5000452E8A110A12E6258A110A16BE1B362E47
:102C6000BC0A3C080B3A0319BC013D2EBC033C08CE
:102C7000FF3A031D3D2E0A30BC008A110A1284213E
:102C80008A110A163C080020BE018A110A125C2330
:102C90008A110A16031C262E8A110A125C238A1135
:102CA0000A1603184C2E3C082520162E4108D00089
:102CB0004008CF004208D1004308D2002030B800BD
:102CC000C001C101C201C301403084000430B90019
:102CD00000080F39C40005304402031C712E033074
:102CE00080070008F039C40050304402031C7A2EDB
:102CF00030308007840AB90B682E0310CF0DD00D39
:102D0000D10DD20DC00DC10DC20DC30DB80B642E77
:102D100008004108D0004008CF004208D100430815
:102D2000D200C001C101C201C3012030B9000310AB
:102D3000D20CD10CD00CCF0CC30CC20CC10CC00CEB
:102D40004F3084000430B800801FA82E303080023D
:102D5000801DAC2E03308002840AB80BA42EB90B60
:102D6000972E0800B801BF01C001B80A0310C41BA8
:102D7000C92EC30DC40D44084202031DC12E4308D1
:102D8000410200000318B52EBF01C0010310C40C9E
:102D9000C30C44084202031DCF2E43084102000029
:102DA000031CD82E4308C1024408031C440FC2026E
:102DB000BF0DC00DB80BC62E0800BF01C0011030FA
:102DC000B8004330B3003F30B400C6010310C20C5A
:102DD000C10C031C042F0230B90033088400000822
:102DE000C500340884004608C6018007031CFA2E7B
:102DF0000130C60045088007031C002F0130C600C3
:102E0000B30AB40AB90BED2E0310C30DC40DB80BF1
:102E1000E12E08008A110A125F258A110A1683160C
:102E200003132D08FB002C08FA00831203137B0800
:102E3000C2007A08C100831603132F08FB002E0876
:102E4000FA00831203137B08C4007A08C300440805
:102E50004202031D2D2F430841020000031C5B2F7B
:102E60004308C1024408031C440FC2020030C400DE
:102E70000A30C300DD264008C2003F08C1008316A7
:102E800003133108FB003008FA00831203137B0898
:102E9000C4007A08C300C408031D512FC3080319D6
:102EA000592FB2263F08F039031D592F3F08C0089B
:0A2EB000031D0F30080003010800A5
:103000008207183418341834183418341834183423
:1030100018348207263436344634563466347634CF
:10302000863496348207AE34B234B634B63482076E
:1030300018341834183418348207183418348207B6
:10304000A634AA3403000000500000000000000075
:10305000810001000000000081000100000000006C
:103060008100010000005000840001000000000009
:10307000560003000000000056000300000000009E
:103080005000030000000000570003000000000093
:10309000030007000000000003000700000000001C
:1030A00000000700000050000300070000000000BF
:1030B00011001000000000001100100000000000CE
:1030C000100010000000500012001100000000006D
:1030D00006001400000000000600140000000000BC
:1030E0000000140000005000060014000000000062
:1030F000090018000000000009001800000080000E
:103100000600180000000000130018000000000076
:103110000600210000000000060021000000000061
:103120000000210000005000060021000000000007
:103130000600280000000000060028000000000033
:1031400000002800000050000600280018000500BC
:103150003D0000004400FD004A000000B80063008C
:103160005E000500C0004F002F000B007100C7007B
:10317000BC000A004108C8004008C7004108C6005A
:103180004008C50045080739C5000920C0004508AA
:103190000020C1001030BF000930C2000D214708D7
:1031A000C500C50CC50CC50CC50C450C0339C500C4
:1031B0001220C00045081720C1000430BF000130B4
:1031C000C2000D214708C500C50D450D0139C500D8
:1031D0001F20C00045081C20C1000430BF0005307E
:1031E000C2000D210330BF00C7193F16471ABF1692
:1031F000F900F8018A110A12E9251930F8000330A4
:10320000F900E925F80AF901E925F80A5030F90032
:10321000E925F80AF901E92500284208F8004008E4
:10322000831203178D0083120313410883120317BF
:103230008F00831603178C178B138B1B19290C1403
:10324000000000008B17831203170C08831203136E
:10325000F900831203138A110A12E9258A150A1646
:1032600083120313F80A83120313C00F3C2983123D
:1032700003178F0A831203134008831203178D006C
:1032800083120313BF0B192908008A110A12083090
:10329000F400BE308E218A150A168A110A125C23A8
:1032A0008A150A1603184D298A110A125F258A15F4
:1032B0000A16831603132D08FB002C08FA0083124C
:1032C00003137B08C0007A08BF0040308A110A123D
:1032D0008C218A150A1640088A110A12C3218A1500
:1032E0000A163F088A110A12C3218A150A168A1182
:1032F0000A125C238A150A16031C54298316031329
:103300002D08FB002C08FA002D08AF002C08AE0099
:10331000831203130230B8007A3084001930F800A9
:103320008A110A123B268A150A168A110A120830D7
:10333000F400D0308E218A150A168A110A125C23F5
:103340008A150A1603189D298A110A125F25831609
:1033500003132D08FB002C08FA00831203137B08CB
:10336000C0007A08BF0040308C214008C3213F08CC
:10337000C3215C238A150A16031CA42940308A1134
:103380000A128C21831603132D08FB002C08FA0067
:103390002F08FD002E08FC00831203137B08C200D7
:1033A0007A08C1007D08C4007C08C3004308C1023C
:1033B0004408031C440FC2024208C3214108C32130
:1033C0000030C4000A30C3008A110A16DD268A15AF
:1033D0000A1640088A110A12C3213F08C3218A1520
:1033E0000A164008C2003F08C1000030C40009307E
:1033F000C3008A110A16B2268A150A1640088A11D5
:103400000A12C3213F08C3210230B8003F308400B4
:103410001B30F8003B268A110A165E2800000000C7
:02400E00723FFF
:10420000FF00FF00FF00FF00FF00FF00FF00FF00B6
:10421000FF00FF00FF00FF00FF00FF00FF00FF00A6
:10422000FF00FF00FF00FF00FF00FF00FF00FF0096
:0A423000FF00FF00FF00FF00FF0089
:00000001FF
