:020000040000FA
:10000000CA29FF3FFF3FFF3FF000030E8301F100CD
:100010000A08F2008A0183130408F3008B1C3128BC
:1000200083160313010883120313F500751F1E289E
:1000300086181C28BE032328BE0A2328861C2228D3
:10004000BE032328BE0A751F2B2883160313011332
:10005000831203133028831603130117831203132B
:100060008B100C1C3E280C10DF08031DDF03E0087A
:10007000031DE003D9308F0000308E008C1C442813
:100080008C10E108031DE1030B1D47280B110D1A0D
:100090000D127308840072088A00710E8300F00E3E
:1000A000700E09000F398207303431343234333462
:1000B00034343534363437343834393441344234D6
:1000C00043344434453446340F398207BE34B434A3
:1000D000AA34A03496348C34823478346E34643448
:1000E0005A34503446343C343234283483160313A3
:1000F000280883120313B800B80CB80C380C1F3949
:100100008207853478346D3464345C34563450342A
:100110004B34473443343F343C343934373434344B
:10012000323430342E342C342B34293428342734D0
:1001300026342434233422342134203420341F3410
:100140001E34B800B80CB80C380C1F3982070934BB
:100150001034113412341334143415341634173463
:1001600018341934203421342234233424342534EF
:10017000263427342834293430343134323433347B
:100180003434353436343734383439344034BE01BD
:100190000130BB000A30B800DD20031CDC2821211F
:1001A000B80BCC2884210830F40092308E21023024
:1001B000BB00DD200318D72808000314861A03109B
:1001C0000800830183160313403081002F3085001F
:1001D000E33086000030870002309F0003308C003F
:1001E00010308D0083120313D0308B000030850057
:1001F000003086000030870001309000013092000E
:100200002030840080016530040203190929840A22
:100210000229D9308F0000308E008316031301307D
:10022000D500D700D301D401831203130800FA309C
:100230002A21FA302A21FA302A21FA302A29643078
:100240002A2932302A290A302A2905302A2903305E
:100250002A290130B500B50AB50B2F290800133043
:10026000B600B60B34292C291030B700B70B36294D
:10027000312907100F302A2120306121803061217F
:1002800005302A21203061218030612101302A216E
:1002900006305A210C305A2114305A21842108008A
:1002A000F60067217608F03904386121760EF039BE
:1002B00004386129F60067217608F0396121760E4D
:1002C000F0398719083887000714071008008717C6
:1002D00083160313803087008312031307118714DA
:1002E000B11307140000871FB1170710000007148F
:1002F00000000710B11F7029831603130030870018
:10030000831203138710080001305A2902305A293A
:1003100080305A29C0305A2980385A29831203174D
:100320008D0074088F00831603178C178B138B1B9B
:1003300096290C14000000008B17831203170C0879
:10034000831203138C21831203178D0A03198F0A5A
:10035000831603178C178B138B1BAB290C1400000F
:1003600000008B17831203170C0883120313FF3945
:10037000031908005021831203178D0A03198F0AED
:10038000A82920305029F700770E522050217708F5
:1003900052205029E1205F25051639210830F4004C
:1003A00060308E210830F40042308E210730B800D2
:1003B0001D212E305021B80BD8295426200A031DA8
:1003C000F7290230B8000930F40006308E210930D8
:1003D000F40018308E21172108305A2117210C30D3
:1003E0005A211721B80BEC298A110A167529861A89
:1003F0000E2A84210830F40072308E210830F40077
:100400004E308E2117211721172117211721861E03
:10041000072A8A110A16392E8A110A128421201DF0
:1004200005122026B115BC010230BD001030E200DB
:100430003215B2143114BE080319332A31102026A4
:100440003E08BE1B2A2ABE017F39C8009123C80B73
:10045000262A312A3E09BE01013EC800E223C80B0C
:100460002E2AB2143215321D392A31101A23F822DD
:100470003211B21C422A3110ED24871D3325871911
:100480002825B210861A632A311020180516C720B5
:100490003B08013A031D5C2ABD0A201F542A3D086F
:1004A000053A031D5A2A582A3D08043A031D5A2AC0
:1004B0000130BD003215612A8A110A1660208A11A6
:1004C0000A1220182026A01C802A061FB114861F9D
:1004D0003115B11C732A311028258715EE25871197
:1004E0003325EE25B110311D8C2A311028258715B2
:1004F000EE25EE25EE2587113325EE2531118C2AC8
:10050000061B882A87198C2A3110282587158C2AE2
:10051000871D8C2A33258711DF080319972AB11DFF
:100520009E2A20180516B111311632159E2A311E49
:100530009E2A20180512B11531123215311FA52A35
:1005400020261A23F82231103113311CF72A6208B1
:10055000013A031DB02A8A110A1658248A110A1278
:100560006208023A031DB92A8A110A161C248A114C
:100570000A126208033A031DE62A83160313A50D27
:10058000A60DA50DA60DA50DA60DA50DA60D26085B
:10059000A3002708A6020319E02A2308A600270AB9
:1005A000A6020319E02A2308A6002703A6020319BE
:1005B000E02A831203133117831603132308A700BD
:1005C000A301A401A501A60183120313E20BEA2AE9
:1005D0001030E200AF2583160313A300A401230803
:1005E000A50724080318240FA607831203131A2A49
:1005F000A01C072B311F072B0830F4008B308E21F5
:10060000AF25A120C321C121C121C1210800403053
:100610008C21B21E0D2B7830152B4130321C42300C
:10062000A01D152B6130321C623050212C30321C41
:1006300030302C2B03018C21B21E202B7230282B42
:10064000413032184230A01D282B61303218623000
:1006500050212C303218303084003217000E6323C2
:10066000000863232E3050218403000E63233D08CD
:10067000043A0319562B000863238403000E6323F6
:100680002E3050213D08033A03195C2B00086323E8
:100690003D08023A03195E2B8403000E63233D08D4
:1006A000013A0319602B00086323622B203050218C
:1006B0002030502120305021203050212030502136
:1006C0002030502108000F39031D6A2B321F6A2B7E
:1006D00020306C2B3038321350290A30B80006080D
:1006E0002039B9002921060820393906031D6D2B50
:1006F000B80B6F2B39082039031D822B0130BB004A
:100700000314852B0030BB0003100800C301C40193
:10071000C501C601C701C801BF01C001C101C201B5
:1007200008003D080319BD2B013A0319B82B3D08F9
:10073000023A0319B32B3D08033A0319A92B3D08CC
:10074000043A0319A42B0800E0248C231030C100C4
:10075000C02BE0248C231030C000C02BE0248C235D
:100760000130C000C02BE0248C235030BF00C02BD0
:10077000E0248C231030BF00C02BE0248C23BF0A60
:100780000430C300330884000008C4003408840027
:100790000008C40706304407831CCF2BC400603018
:1007A0004407031CD92BC40033088400840A800A40
:1007B00084033308840044088000B30AB40AC30BDE
:1007C000C22B08003D0803190E2C013A0319092C0D
:1007D0003D08023A0319042C3D08033A0319FA2B89
:1007E0003D08043A0319F52B0800E0248C2310304F
:1007F000C100112CE0248C231030C000112CE02407
:100800008C230130C000112CE0248C235030BF0019
:10081000112CE0248C231030BF00112CE0248C23F9
:10082000BF0A0430C300330884000008C400340841
:1008300084000008C402C50D8318202C0630C402B1
:100840004518272C6030C402840A800A84033308C8
:10085000840044088000B30AB40AC30B132C0800B8
:100860008623330884000008BF00840A0008C00003
:10087000840A0008C100840A0008C2002030C700B2
:100880000310C20CC10CC00CBF0CC60CC50CC40CB0
:10089000C30C3F3084000430C800801F512C30301E
:1008A0008002801D552C03308002840AC80B4D2C19
:1008B000C70B402C08002608C0002508BF002708E9
:1008C000C1002808C2003F08C30740080318400FB2
:1008D000C40741080318410FC50742080318420F17
:1008E000C60708002608C0002508BF002708C10069
:1008F0002808C2003F08C3024008031C400FC4027E
:100900004108031C410FC5024208031C420FC602E6
:10091000C61F0800C309C409C509C609C30A0319CB
:10092000C40A0319C50A0319C60A08002108CF0022
:100930002208D0002308D1002408D2002030C700AC
:100940004F30B3005730B400C0010310C60CC50CC3
:10095000C40CC30C031CC52C0830C1003308840030
:100960000008BF00340884004008C0018007031C51
:10097000BB2C0130C0003F088007031CC12C013094
:10098000C000B30AB40AC10BAE2C0310CF0DD00DBA
:10099000D10DD20DD30DD40DD50DD60DC70BA02C76
:1009A00008003F30840080015E3004020319DA2C15
:1009B000840AD32C0800A019E82CB21AE82CE42CE5
:1009C0003F30B400B21AE82C293032182D30EB2C0D
:1009D0002930321C2D30B3000800D124E424302407
:1009E000201E7224201A5B2496245B08FB005A0800
:1009F000FA005C08FC005D08FD00831603137B0809
:100A0000C6007A08C5007C08C7007D08C8008312AC
:100A10000313D124DB243024A01A122D201E7224AB
:100A2000201A5B2496245B08FB005A08FA005C0835
:100A3000FC005D08FD00831603137B08CA007A08DA
:100A4000C9007C08CB007D08CC008312031308008A
:100A5000831603134A08D0004908CF004B08D10081
:100A60004C08D2003D2D831603134608D0004508DC
:100A7000CF004708D1004808D20083120313752520
:100A8000831603135008CE004F08CD00CE134E1727
:100A9000831203137B2583160313CF0DD00DD10DC5
:100AA000D20DCF0DD00DD10DD20D5208CE00510870
:100AB000CD00CE134E17831203137B25080083123B
:100AC00003137525831603134430CE00BB30CD00CD
:100AD000831203137B25831603134730CE00AE30F9
:100AE000CD00831203137B250800831603132030E7
:100AF000CE000030CD0083120313061183160313BA
:100B00004E08831203138C25831603134D0883129A
:100B100003138C2506150800BF000830B800BF0D70
:100B2000031C06120318061686118615B80B8F2DA6
:100B30000800831603139F17831203136130B02537
:100B400083160313AD001E08AC009F13831203131A
:100B500008005930B02D5130B02D4930B02D413002
:100B60009F0001302A211F151F19B42D1E080800EF
:100B7000C8009A30C7004808C801C815C501C60199
:100B80000310C50DC60DC70D031CC92DC5070318DD
:100B9000C60AC80BC02D0030031046070800C70066
:100BA0000830C800C501C60145080F39C40005302A
:100BB0004402031CDD2D0330C5074508F039C4008D
:100BC00050304402031CE62D3030C5070310C70D1A
:100BD000C50DC60DC80BD42D45080800AF258316DA
:100BE0000313A800831203137620E100F230871D5F
:100BF000F2308316031300009200831203131215C0
:100C0000061FB114861F3115E108031D002E1211B5
:100C10000800C8002A30C7004808C801C815C50127
:100C2000C6010310C50DC60DC70D031C1A2EC5073E
:100C30000318C60AC80B112E093003104607080016
:100C4000C830DF000800831603178C18252E831286
:100C500003137808831203178D0083120313790896
:100C6000831203178C00831603178C130C158B1338
:100C70008B1B372E55308D00AA308D008C148C18AC
:100C80003F2E8B170C118312031308007808831270
:100C900003178D00831603178C130C14831203178C
:100CA0000C088312031308001130B80020308400B0
:100CB000F8016E260430B8007A3084001930F8004C
:100CC0006E26831603137B08AF007A08AE007C08FB
:100CD000B0007D08B100831203130800462680008F
:100CE000840AF80AB80B6E2E08000008F9002326C3
:100CF000840AF80AB80B752E0800FF3FFF3FFF3F3C
:100D0000FF3FFF3FFF3FFF3FFF3FFF3FFF3FFF3FF3
:100D1000FF3FFF3FFF3FFF3FFF3FFF3FFF3FFF3FE3
:100D2000FF3FFF3FFF3FFF3FFF3FFF3FFF3FFF3FD3
:100D3000FF3FFF3FFF3FFF3FFF3FFF3FFF3FFF3FC3
:101000003F398207003400340034013401340134A4
:10101000023403340334043405340634063407340C
:10102000083409341034113412341434153417349C
:1010300018341934203422342434253427343034FD
:10104000323434343534373439344034433445342D
:101050004734503452345434563458346034633442
:101060006534673469347234743476347834813456
:10107000833485348734903492349434963499345C
:10108000993499344034563431342E343134303438
:10109000203469346E346934743400344034563446
:1010A00031342E343134303420342034203431344F
:1010B00033342E34303431342E343134313400343E
:1010C000003444344C342D345134523450342D34A3
:1010D00041344734203455346E3469344434443414
:1010E0005334003400344434443453342D345634AF
:1010F00046344F3428346334293444344C34343443
:101100004A3441344C34003400345334573452346C
:101110003A34203400344034573470344D343A3447
:101120002034003400344D3465346E34753400346A
:1011300040347334633461346E346E3469346E34E5
:1011400067340034403462347234653461346B3453
:10115000203420342034003409347334613476343C
:10116000653420342034203400340934633461344D
:101170006E34633465346C342034003400345334BA
:101180003D343034203420343034203475345634F7
:1011900020342034203428346F346B342934003424
:1011A000003453343D343934203435343034203431
:1011B0007534563420342034203428346F346B3462
:1011C000293400344034203420342034563446341A
:1011D0004F342B345A3446342034203420342034D5
:1011E000203420342034003440342034203420345F
:1011F000563446344F342D345A3446342034203457
:101200002034203420342034203400340034663438
:101210006934723473347434203469346E3469340C
:1012200074342034203420342034203420340034EA
:10123000403470346C346534613473346534203434
:1012400069346E3470347534743420346E347234CE
:10125000213400340034743475346E3469346E349F
:101260006734203420342034203420342034203497
:1012700020342034203400344034203420342034CE
:101280006F346E3420342034203420342034203421
:1012900020342034203420342034003440342034AE
:1012A000203420346F3466346634203420342034C3
:1012B00020342034203420342034203420340034AE
:1012C0000034203430342034623472346534613474
:1012D0006B34203420342034203420342034203423
:1012E0002034003400342034313420345634463431
:1012F0004F34203441342F344234203420342034CD
:10130000203420342034003400342034323420346B
:101310006C34693467346834743420346F346E3418
:101320002F346F3466346634203400340034203473
:10133000333420346C346934673468347434203482
:101340006134753474346F342034203420340034E4
:1013500000342034343420347334633461346E34D4
:1013600020342034203420342034203420342034DD
:1013700020340034003420343534203453344534A0
:101380005434553450342034203420342034203424
:1013900020342034203400340034203436342034D7
:1013A0006B3465347934653472342034203420341D
:1013B00020342034203420342034003400342034CD
:1013C00037342034743475346E346534203420342A
:1013D000203420342034203420342034203400348D
:1013E0000034203438342034783469347434203470
:1013F00031346B34203420342034203420342034F1
:1014000020340034003420343934203478346934C2
:101410007434203432346B3420342034203420347B
:10142000203420342034003400343134303420343B
:10143000723469347434203420342034203420341D
:10144000203420342034203420340034003420343C
:10145000303420345334653474347534703420346B
:1014600062347234653461346B3420342034003497
:1014700000342034313420344434443453342D3453
:10148000543461346B3474342034203420342034A8
:10149000203400340034203432342034563446347E
:1014A0004F342D3441342034283448347A342934AC
:1014B00020342034203400340034203433342034B9
:1014C000563446344F342D34423420342834483492
:1014D0007A34293420342034203400340034203449
:1014E000343420345A3446342034283448347A345E
:1014F0002934203420342034203420342034003463
:1015000000342034353420347334633461346E3421
:101510002D3462346534673469346E3420342034B9
:1015200020340034003420343634203473346334AF
:1015300061346E342D3465346E3464342034203498
:101540002034203420340034003420343734203424
:1015500053342D344D34653474346534723420344E
:1015600065346934633468342E34003400342034F4
:1015700038342034563446344F3420342B342F340E
:101580002D3420345A34463420342034203400346E
:1015900000342034393420345434583420342B343B
:1015A0002F342D3420345A3446342034203420341F
:1015B0002034003400343134303420343134303489
:1015C00030346B3448347A342034733474346534B2
:1015D0007034203420340034003431343134203439
:1015E0006434653466342E34203463346F346E349E
:1015F000663469346734203420340034FF3FFF3FC1
:10160000FF3FFF3FFF3FFF3FFF3FFF3FFF3FFF3FEA
:10161000FF3FFF3FFF3FFF3FFF3FFF3FFF3FFF3FDA
:10162000FF3FFF3FFF3FFF3FFF3FFF3FFF3FFF3FCA
:10163000FF3FFF3FFF3FFF3FFF3FFF3FFF3FFF3FBA
:102000000F398207E42AED2AF62AFF2A082B112B22
:102010001A2B232B2C2B482B642B802B9B2B9B2B9D
:102020009B2B9B2B0F3982079B2BD22BDB2BE92B76
:10203000A42BAD2BB62BF72B002C0E2CC42B9B2BDB
:102040009B2B9B2B9B2B9B2B9B2B0F398207632955
:1020500067296A296C296E29712973295C285D29F1
:10206000512957297529C428C428C428C4280F39E0
:102070008207C428D328F0284229912D392EEA2836
:10208000FA280E292829D928C428C428C428C428F5
:10209000C428C4280F398207303431343234333401
:1020A0003434353436343734383439342B342B34F3
:1020B0002B342B342B342B348A150A1645296329EB
:1020C000BE018A110A1284218A110A168A110A1283
:1020D0006D238A110A16031866283C0812203E0850
:1020E00003198E288A110A1220268A110A16BE1B8D
:1020F0007F28BC0A3C080B3A0319BC018628BC03A4
:102100003C08FF3A031D86280A30BC008A110A12D7
:1021100084218A110A163C081220BE018A110A1273
:102120006D238A110A160318AA28861B6F288A11A4
:102130000A120930F4002A308E218A110A16861FED
:102140009F288A110A121F218A110A16861F9F28AA
:102150009524B3288A110A126D238A110A160318CE
:10216000AA283C08372083160313FF30D700D50078
:102170008312031308002008F9000030F8008A11C8
:102180000A1223268A110A168A110A1284218A1138
:102190000A163215B21483160313FF30D700D50088
:1021A000831203130800321CD7283210D8283214A7
:1021B000C428B212A01DE328A0113218E12805217D
:1021C000E928FC20E928A015321CE8280521E92887
:1021D000FC20C428A01CEE28A010EF28A014BB28C7
:1021E0002019F628201505162010BB2820110512ED
:1021F0002014BB289524C4282A08AE002908AD0065
:102200002B08AF002C08B00008002E08AA002D08EB
:10221000A9002F08AB003008AC000800B21A26292C
:10222000321C142905211529FC20A011B2163F30BB
:10223000B4002930321C2D30B3008A110A128C23CD
:102240001030C000C0238A110A162729B212C428F0
:10225000B21A4029321C2E2905212F29FC20A01159
:10226000B2163F30B4002930321C2D30B3008A1131
:102270000A128C232030C000C0238A110A1641297B
:10228000B212C428201C4829201005122011502900
:102290008A110A1220268A110A1620142011051606
:1022A000BB28A01E5529A012BB28A016BB28201FA2
:1022B0005B292013BB282017BB28201E6129201270
:1022C000BB282016BB288A110A128421002801305D
:1022D00032168729093089290D3089290530B21530
:1022E0008C2911308929153089298A110A128421F3
:1022F0000A30F400EC308E2117218A110A160F30B3
:10230000C7008F218A150A16BA208A110A16C7013A
:102310008F29C70147148F29C7014714C714C60066
:10232000F800BF01C001C101C201C3014719A129C1
:102330000430B800403084008A110A126E268A11D7
:102340000A16C7187926C401C719C4140D22BE0184
:10235000861AD5298A110A126D238A110A160318C2
:10236000AA293F080319CF293F08013A031DC829AC
:10237000C718AC264719C7290430B800403084007C
:102380004608F8008A110A1275268A110A160C2AC4
:102390003F08023A031DCF29C718AC260C2AC40AED
:1023A0004408053A0319C4010D22BE080319A829DF
:1023B0004330840044088402BE1BF02901308007AA
:1023C000471CF0290008CF0006304F07831CE9297D
:1023D00080000008CF0060304F07031CF029800008
:1023E000BE1FFF2901308002471CFF29C80D83183A
:1023F000FB29063080024818FF29603080023F0820
:10240000033A0319BF013F08FF3A031D092A0230AE
:10241000BF000D22BE01A82908004008FB003F08AC
:10242000FA004108FC004208FD00831603137B08F4
:10243000B4007A08B3007C08B5007D08B6008312AA
:1024400003134408FB004308FA004508FC00460853
:10245000FD00831603137B08B8007A08B7007C08D8
:10246000B9007D08BA00831203134808FB0047082F
:10247000FA004908FC004A08FD00831603137B0894
:10248000BC007A08BB007C08BD007D08BE0083123A
:102490000313321E5C2A4108A2004008A100420832
:1024A000A3004308A4000630AC000730AB00503056
:1024B000AA000030A900662AB21D6E2A4108AA00AF
:1024C0004008A9004208AB004308AC00A016321037
:1024D0008A110A12ED2428258A110A16831603137D
:1024E0003408FB003308FA003508FC003608FD000C
:1024F000831203137B08C0007A08BF007C08C10068
:102500007D08C200831603133808FB003708FA0061
:102510003908FC003A08FD00831203137B08C4004D
:102520007A08C3007C08C5007D08C6008316031323
:102530003C08FB003B08FA003D08FC003E08FD009B
:10254000831203137B08C8007A08C7007C08C900FF
:102550007D08CA00433084000430B8008A110A1292
:1025600084210F305A218A110A1600088A110A1292
:10257000C3218A110A168403B80BB52A3F08031930
:10258000D82A013A031DCC2A8A110A120830F40015
:10259000AC308E218A110A163F08023A031DD82A50
:1025A0008A110A120830F400B5308E218A110A16F9
:1025B0004408C5000310C50D450A40388A110A12A7
:1025C0008C218A110A1608008A110A120A30F400B6
:1025D00026308E218A110A1608008A110A120A3042
:1025E000F40038308E218A110A1608008A110A1266
:1025F0000A30F4004A308E218A110A1608008A1126
:102600000A120A30F4005C308E218A110A16080082
:102610008A110A120A30F4006E308E218A110A16CD
:1026200008008A110A120A30F40080308E218A11C3
:102630000A1608008A110A120A30F40092308E211C
:102640008A110A1608008A110A120A30F400A4300E
:102650008E218A110A1608008A110A120A30F40023
:10266000B6308E218A110A16201E3F2B8A110A12BB
:102670000830F400F4308E218A110A1608008A11FD
:102680000A120830F400E2308E218A110A1608007E
:102690008A110A120A30F400C8308E218A110A16F3
:1026A000A01A5B2B8A110A120930F4004E308E21D9
:1026B0008A110A1608008A110A120930F4003C3007
:1026C0008E218A110A1608008A110A120A30F400B3
:1026D000DA308E218A110A16201F772B8A110A12EE
:1026E0000930F4004E308E218A110A1608008A1132
:1026F0000A120930F4003C308E218A110A160800B3
:102700008A110A120A30F400EC308E218A110A165E
:1027100008008A110A120930F4003C308E218A1117
:102720000A1608008A110A120930F4004E308E2170
:102730008A110A1608008A110A120930F400603062
:102740008E218A110A1608008A110A120930F40033
:10275000A8308E218A110A1608008A110A1209303F
:10276000F400BA308E218A110A160800A01CBA2B78
:102770009223BB2B89238A110A120930F400CC3032
:102780008E218A110A160800A01DC82B9223C92B7E
:1027900089238A110A120A30F40014308E218A111A
:1027A0000A1608008A110A120930F40072308E21CC
:1027B0008A110A160800201DDF2B9223E02B8923A3
:1027C0008A110A120930F40084308E218A110A1607
:1027D0000800201CED2B9223EE2B89238A110A126C
:1027E0000930F40096308E218A110A1608008A11E9
:1027F0000A120930F400DE308E218A110A16080010
:10280000B21E042C9223052C89238A110A12093046
:10281000F400F0308E218A110A160800B21E122C24
:102820009223132C89238A110A120A30F4000230F1
:102830008E218A110A1608008A110A1299258A1116
:102840000A162D2783160313D40053028312031391
:102850000318322C6430E000831603135408D300AD
:1028600083120313E008031D3B2C83160313540843
:10287000D3008312031383160313530855028312E4
:1028800003130319572C8A110A124E308C2153302E
:1028900050218A110A16831603135308D500831298
:1028A00003134A208A110A1250218A110A160800BD
:1028B0008A110A12A925B8258A110A16831603134C
:1028C000D6005702831203130319942C8A110A129B
:1028D0000B308C21831603135608D7008312031381
:1028E000CF258A110A1646080F39031D7D2C8A113F
:1028F0000A12C1218A110A16842C46088A110A126A
:10290000522050218A110A168A110A124508F7002E
:10291000770E522050212E3050217708522050211E
:10292000563050218A110A1608008A110A122825E9
:10293000871584218A110A168A110A126D238A11B9
:102940000A160318042D861F042D061F042D8A1154
:102950000A12AD25E300AB25E4008A110A161425FE
:102960008A110A120830F40084308E218A110A1666
:102970008316031322088312031330388A110A12B4
:1029800050212E3050218316031321088312031384
:1029900030385021C121503050213A3050218A1115
:1029A0000A166308BF000310BF0C3F0C8A150A12F9
:1029B0000020BF003F0E0F3930388A110A12502113
:1029C0002E3050213F080F393038502157305021D8
:1029D0008A110A1640308A110A128C218A110A16AD
:1029E00083160313200883120313B8001030B900B4
:1029F000FF30B803B81B20308A110A1250218A1107
:102A00000A16B90BF82C9C2C8A110A126D238A1114
:102A10000A160318042D8A110A12871133258421FE
:102A20008A110A16321508008A110A1286238A11A1
:102A30000A16630803196A2DBF006408C100410823
:102A4000BF024208031C420FC002031C662DBF08D0
:102A50000319662D6308C3004308C107440803181F
:102A6000440FC207C401C403C40A3F08C10240089E
:102A7000031C400FC2020318342D3F08C107400851
:102A80000318400FC207C20141080310C10DC20D57
:102A90000310C10DC20DC1070318C20A0310C10DF6
:102AA000C20DC301C303C30A3F08C1024008031C8F
:102AB000400FC2020318532D3F08C10740080318F6
:102AC000400FC2070A304402031C6E2D0930C300B8
:102AD000C4006E2DC301C401C2017E2DC2010230AB
:102AE0004402031C782D4403C2000930C2077A2D2A
:102AF0004308C200123042020318C2034208831680
:102B00000313A00083120313430883160313A100C9
:102B100083120313440883160313A20083120313C2
:102B20000800BE01201805120230BD00321011301D
:102B3000F8000830B800293084008A110A126E2685
:102B40008A110A161C248A110A120830F4009830DF
:102B50008E218A110A16831603132D08AB002C0848
:102B6000AA00831203138A110A121A239123ED2457
:102B700033258A110A161C24831603132D082B02F1
:102B8000031DC42D2C082A0200008312031303180E
:102B9000CF2D83160313A90A83120313D42D831692
:102BA0000313A901831203138316031303302902AD
:102BB00083120313031C002E201805162830BA00B8
:102BC0001C24831603132D08AB002C08AA008312C3
:102BD00003138A110A121F218A110A16BE08031D47
:102BE000252E061F252E861F252E861E252EBA0B66
:102BF000E02D83160313A901831203132018051275
:102C0000831603132D08AB002C08AA0083120313AC
:102C1000BE08031D252E061F252E861F252E861E67
:102C2000252E30082C02031D212E2F082B02031DF8
:102C3000202E2E082A02031D1F2E2D082902000017
:102C400000000000031CB32D912D201805168A11D9
:102C50000A120830F400A2308E218A110A16061FCB
:102C60002F2E861F2F2E861E2F2E20180512BE01F6
:102C70000800BC01BE018A110A1284218A110A16B9
:102C80008A110A126D238A110A160318402E3C0875
:102C900000203E080319682E8A110A1220268A1184
:102CA0000A16BE1B592EBC0A3C080C3A0319BC017B
:102CB000602EBC033C08FF3A031D602E0B30BC00A5
:102CC0008A110A1284218A110A163C080020BE01CA
:102CD0008A110A126D238A110A16031C492E8A11C1
:102CE0000A126D238A110A1603186F2E3C0825203C
:102CF000392E4108D0004008CF004208D1004308D7
:102D0000D2002030B800C001C101C201C30140306F
:102D100084000430B90000080F39C40005304402B3
:102D2000031C942E033080070008F039C400503093
:102D30004402031C9D2E30308007840AB90B8B2E71
:102D40000310CF0DD00DD10DD20DC00DC10DC20D90
:102D5000C30DB80B872E08004108D0004008CF00F3
:102D60004208D1004308D200C001C101C201C30121
:102D70002030B9000310D20CD10CD00CCF0CC30CF6
:102D8000C20CC10CC00C4F3084000430B800801F4E
:102D9000CB2E30308002801DCF2E03308002840A7B
:102DA000B80BC72EB90BBA2E0800B801BF01C0017D
:102DB000B80A0310C41BEC2EC30DC40D4408420214
:102DC000031DE42E4308410200000318D82EBF0162
:102DD000C0010310C40CC30C44084202031DF22EB0
:102DE000430841020000031CFB2E4308C1024408B3
:102DF000031C440FC202BF0DC00DB80BE92E080022
:102E0000BF01C0011030B8004330B3003F30B40000
:102E1000C6010310C20CC10C031C272F0230B900DD
:102E2000330884000008C500340884004608C60141
:102E30008007031C1D2F0130C60045088007031CB6
:102E4000232F0130C600B30AB40AB90B102F0310A8
:102E5000C30DC40DB80B042F08008A110A1299255E
:102E60008A110A16831603132D08FB002C08FA009A
:102E7000831203137B08C2007A08C1008316031370
:102E80002F08FB002E08FA00831203137B08C400EE
:102E90007A08C30044084202031D502F4308410230
:102EA0000000031C7E2F4308C1024408031C440F8A
:102EB000C2020030C4000A30C30000274008C2002C
:102EC0003F08C100831603133108FB003008FA00E5
:102ED000831203137B08C4007A08C300C408031DCF
:102EE000742FC30803197C2FD5263F08F039031D22
:102EF0007C2F3F08C008031D0F30080003010800A5
:102F0000FF3FFF3FFF3FFF3FFF3FFF3FFF3FFF3FD1
:102F1000FF3FFF3FFF3FFF3FFF3FFF3FFF3FFF3FC1
:102F2000FF3FFF3FFF3FFF3FFF3FFF3FFF3FFF3FB1
:102F3000FF3FFF3FFF3FFF3FFF3FFF3FFF3FFF3FA1
:102F4000FF3FFF3FFF3FFF3FFF3FFF3FFF3FFF3F91
:102F5000FF3FFF3FFF3FFF3FFF3FFF3FFF3FFF3F81
:102F6000FF3FFF3FFF3FFF3FFF3FFF3FFF3FFF3F71
:102F7000FF3FFF3FFF3FFF3FFF3FFF3FFF3FFF3F61
:102F8000FF3FFF3FFF3FFF3FFF3FFF3FFF3FFF3F51
:102F9000FF3FFF3FFF3FFF3FFF3FFF3FFF3FFF3F41
:102FA000FF3FFF3FFF3FFF3FFF3FFF3FFF3FFF3F31
:102FB000FF3FFF3FFF3FFF3FFF3FFF3FFF3FFF3F21
:102FC000FF3FFF3FFF3FFF3FFF3FFF3FFF3FFF3F11
:102FD000FF3FFF3FFF3FFF3FFF3FFF3FFF3FFF3F01
:102FE000FF3FFF3FFF3FFF3FFF3FFF3FFF3FFF3FF1
:102FF000FF3FFF3FFF3FFF3FFF3FFF3FFF3FFF3FE1
:103000008207183418341834183418341834183423
:1030100018348207263436344634563466347634CF
:10302000863496348207AE34B234B634B63482076E
:1030300018341834183418348207183418348207B6
:10304000A634AA3403000000500000000000000075
:10305000810001000000000081000100000000006C
:103060008100010000005000840001000000000009
:10307000560003000000000056000300000000009E
:103080005000030000000000570003000000000093
:10309000030007000000000003000700000000001C
:1030A000000007000000500003000700000060005F
:1030B000110010000000600011001000000000006E
:1030C000100010000000500012001100000000006D
:1030D00006001400000000000600140000000000BC
:1030E0000000140000005000060014000000600002
:1030F00009001800000060000900180000008000AE
:103100000600180000000000130018000000000076
:103110000600210000000000060021000000000061
:103120000000210000005000060021000000000007
:103130000600280000000000060028000000000033
:1031400000002800000050000600280018000500BC
:103150003D0000004400FD004A000000B80063008C
:103160005E000500C0004F002F000B007100C7007B
:10317000BC000A004108C8004008C7004108C6005A
:103180004008C50045080739C5000920C0004508AA
:103190000020C1001030BF000930C2000D214708D7
:1031A000C500C50CC50CC50CC50C450C0339C500C4
:1031B0001220C00045081720C1000430BF000130B4
:1031C000C2000D214708C500C50D450D0139C500D8
:1031D0001F20C00045081C20C1000430BF0005307E
:1031E000C2000D210330BF00C7193F16471ABF1692
:1031F000F900F8018A110A1223261930F800033069
:10320000F9002326F80AF9012326F80A5030F900BC
:103210002326F80AF901232600284208F80040086E
:10322000831203178D0083120313410883120317BF
:103230008F00831603178C178B138B1B19290C1403
:10324000000000008B17831203170C08831203136E
:10325000F900831203138A110A1223268A150A160B
:1032600083120313F80A83120313C00F3C2983123D
:1032700003178F0A831203134008831203178D006C
:1032800083120313BF0B192908008A110A12083090
:10329000F400BE308E218A150A168A110A126D2397
:1032A0008A150A1603184D298A110A1299258A15BA
:1032B0000A16831603132D08FB002C08FA0083124C
:1032C00003137B08C0007A08BF0040308A110A123D
:1032D0008C218A150A1640088A110A12C3218A1500
:1032E0000A163F088A110A12C3218A150A168A1182
:1032F0000A126D238A150A16031C54298316031318
:103300002D08FB002C08FA002D08AF002C08AE0099
:10331000831203130230B8007A3084001930F800A9
:103320008A110A1275268A150A168A110A1208309D
:10333000F400D0308E218A150A168A110A126D23E4
:103340008A150A1603189D298A110A1299258316CF
:1033500003132D08FB002C08FA00831203137B08CB
:10336000C0007A08BF0040308C214008C3213F08CC
:10337000C3216D238A150A16031CA42940308A1123
:103380000A128C21831603132D08FB002C08FA0067
:103390002F08FD002E08FC00831203137B08C200D7
:1033A0007A08C1007D08C4007C08C3004308C1023C
:1033B0004408031C440FC2024208C3214108C32130
:1033C0000030C4000A30C3008A110A1600278A158B
:1033D0000A1640088A110A12C3213F08C3218A1520
:1033E0000A164008C2003F08C1000030C40009307E
:1033F000C3008A110A16D5268A150A1640088A11B2
:103400000A12C3213F08C3210230B8003F308400B4
:103410001B30F80075268A110A165F28000000008C
:10342000FF3FFF3FFF3FFF3FFF3FFF3FFF3FFF3FAC
:10343000FF3FFF3FFF3FFF3FFF3FFF3FFF3FFF3F9C
:10344000FF3FFF3FFF3FFF3FFF3FFF3FFF3FFF3F8C
:10345000FF3FFF3FFF3FFF3FFF3FFF3FFF3FFF3F7C
:020000040000FA
:020000040000FA
:02400E00723FFF
:020000040000FA
:08400000FF3FFF3FFF3FFF3FC0
:00000001FF
