:020000040000FA
:0200000057D0D7
:040008005FEF19F09D
:08001800B1EF19F00F0B7C6E33
:10002000000EF76E360EF66E7C50F626D8B0F72A24
:100030000800F55012003031323334353637383954
:100040004142434445460F501F0B7C6E000EF76E35
:10005000540EE9D72C36404A545E68727C86909ADA
:10006000A4AEBECEDEEE070B7C6E000EF76E720EF7
:10007000DAD70A0E12161A1E59507C6ED8907C32AE
:100080007C327C301F0B7C6E000EF76E900ECBD74F
:1000900085786D645C56504B47433F3C393734326A
:1000A000302E2C2B292827262423222120201F1EF6
:1000B00029DB828AC3EC17F061DA2E8C72682D80FE
:1000C000010E526E100E8F6FFF0E056E04EC0CF0D9
:1000D0000650650810E121DA28E361DB010E365C89
:1000E00006E1AEEC0BF047DB56DBD2EF16F057DB48
:1000F000040E365C16E1DFDA000EF86E380EF76E8D
:10010000240EF66E73EC03F0DCEC0BF0D4DA000E88
:10011000F86E380EF76E360EF66E73EC03F00ADAF0
:1001200023DAFBD9FEE258EF00F0000EF86E370E2E
:10013000F76EA00EF66E73EC03F05A6A056A04ECD3
:100140000CF0EFEC0BF0052A5A2EF9D79CEC02F0DC
:10015000AEEC0BF010DB0CDA0FC030F06DEC0BF0F6
:1001600010BC04D0FAEC08F01BEC09F04FEC19F0CD
:1001700057EC19F04FEC19F057EC19F01AEC0CF0A1
:1001800010B4838410B28384010E0E6E10A603D0C7
:100190002CB001D00E6AFFDA726883B202D083B04D
:1001A00096D92E8837523CE010B483842E98F3DA27
:1001B00037502DA21ED037BE0BD07C0B31E0522A17
:1001C000050E10BC0D0E525C02E1010E526E0DD0F8
:1001D00037C05DF05D6C5D50FC0B22E0520652288A
:1001E00004E1040E10BC0C0E526E2E8C7268376A3D
:1001F00017D037BE09D0376A7F0B5D6E2EAA4FEC41
:1002000005F05D2EFBD709D0376C3750376A5D6E2D
:100210002EAA8EEC05F05D2EFBD72E8C72682D80F9
:100220002EAC19EF01F02E9853EC07F024EC07F0F8
:100230002E9C2DA004D02E98C9DA2BDB2D906DD9E1
:100240002DAC20D010B483842E98A5DA2DA405D02F
:100250002D948DEC02F0FDE215D0A1DA010E365C92
:1002600002E1F5EC09F0020E365C02E103EC0AF063
:10027000030E365C02E13EEC0AF0040E365C02E14D
:1002800079EC0AF02FA003D02E982E8C72682F9A4A
:10029000010E315C05E0020E315C02E02F8A1ED0B7
:1002A00010A81CD081B408D02DA205D02D84F7EC65
:1002B00017F02D9401D02E8281A22E842EA21CD064
:1002C0002E98E9DA83802D8483827CEC02F083927D
:1002D000F7D82D947CEC02F02E92F1D081B40AD0A4
:1002E00083B206D02E98D7DA838083822FAA2D84FA
:1002F000E7D8E5D083922D94010E315C03E0020E25
:10030000315C17E110A815D02EA413D02E98C3DAB3
:1003100083802D8483827CEC02F07CEC02F07CEC08
:1003200002F08392CDD8D3D82D947CEC02F02E9499
:10033000C6D0535209E02DAE12D010B283842D9E48
:100340002E802E8C72680AD02EA009D010B483940F
:1003500010B283842F902E902E8C72682E982CA031
:100360001DD057661BD0030E0E6E100ED06102D04A
:10037000020E0E6E0A0ED06102D0010E0E6E040E39
:10038000D06102D0000E0E6ED151D05D04E0D0C01D
:10039000D1F02E8C7268D06B0A0E576E2EA88FD0BB
:1003A000010E8F5D27E110ACFAEC08F00F50305CC5
:1003B00021E010ACDDD87FD930508ED9000EF86E18
:1003C000370EF76EF00EF66E73EC03F087EC0BF061
:1003D00030C00FF06DEC0BF0ADD82E8C72682D8014
:1003E000DAD910B483842CB002D0010E0E6E10BC8A
:1003F0004FEC19F0020E8F5D1AE110AC1BEC09F006
:100400000F5201E1326A3250315C11E032C031F0FA
:100410002EA604D031C025F031C026F046EC0BF0FA
:10042000BAD910B483842D8010BC57EC19F0030E98
:100430008F5D08E110A006D028EC08F06F50725CC8
:1004400001E02E8C040E8F5D23E110A821D07736B9
:10045000783677367836773678367736783678C0A5
:1004600075F05850785E10E075C078F05828785EC6
:100470000BE075C078F05804785E06E010B4838411
:100480002F8089D975C058F0756A766A776A786A5C
:10049000050E8F5D02E1CAEC17F0060E8F5D00E1DC
:1004A00010A809D03CEC09F08EC075F0766A755042
:1004B0007726765078228F2F02D0100E8F6F6DD650
:1004C000000ECE6EA60ECF6E12C054F01200010EBA
:1004D000315C04E0020E315C01E001D02D945452F5
:1004E00002E18390D6D912009EAAFED7AE50120028
:1004F0009EA8FED7AD6E12003CEC09F0BDDD566E35
:10050000F20ECB6ECA8481A42E8281A22E8483A295
:10051000DEDF5652F8E1CA9412002D9C8150F00B98
:10052000F00A03E02D8CD88001D0D890120001D8B9
:1005300001D800D802D801D800D8FA0E09D0C80EC8
:1005400007D0640E05D0320E03D00A0E01D0010E82
:10055000356E070E346E7D0E336E332EFED7342E7D
:10056000FCD7352EF6D712002D84EDDF2D94EBDF6E
:100570002D84E9DF2D9483908392120083968296D6
:100580008298E1DF200E78D8800E76D8DEDF200E4C
:1005900073D8800E71D8DBDF060E64D80C0E62D8DB
:1005A000140E60D830D887D8000EF86E330EF76E70
:1005B000780EF66E73EC03F0000EF86E330EF76EE5
:1005C0008A0EF66E73EC03F0B4DF75D883841200E4
:1005D000076E5ED80750828682988396F00B4CD8BF
:1005E0000738F00B49D0076E07460746074650D834
:1005F0000750400937D8080E5A6E0900F550E8DF59
:100600005A2EFBD71200000EF86E060EF76E240E5F
:10061000F66E080E5B6E5C6A5C50E5DF5C2A5B2E52
:10062000FBD7120000001818181B000000001B1B4D
:100630001B1B000004041818181B040404041B1BD3
:100640001B1B0404001010101010100000141414D0
:100650001414140000000000001B00000404040433
:10066000041B0404076E14D80750F00B829682987E
:10067000839602D80738F00B83B0010983B20209D0
:1006800083B4040983B60809836E838683961200B7
:10069000838E958E829682882D968386000083AE07
:1006A0002D86839600008386000083962DA6F4D7BE
:1006B000959E82981200010ED5D7020ED3D7800ED8
:1006C000D1D7C00ECFD78009CDD7200E81D75A6E93
:1006D000FCDF5A2EFDD71200086E08389FDC78DF49
:1006E00008509CDC75D70900F550EDDF0900F55086
:1006F00002E06EDFFBD712000900F55002E0F8DEE1
:10070000FBD71200800EC16E2F0E926EFF0E936EFD
:10071000800E946E000E956E070E966E000ED06ED3
:10072000F00EF26E000EF16E000EF06E230E9D6E56
:10073000020EA06E010ECD6E210ECA6E000EB16EBD
:100740002F0E806EFF0E816E270E826E000E836E5E
:10075000070E846EFF0E5A6E00EE00F0EE6A5A2EFF
:10076000FDD710B4838410B28384000ECE6EA60E23
:10077000CF6ECBEF03F091D81C0E436E200E426E6D
:10078000BFC04AF088DA58DA38C066F0660ED66E16
:10079000C40ED56E1200C80E536E2D8E1200280E98
:1007A0005A6E8150F00B5B6ED2DE8150F00B5B5CB9
:1007B000F6E15A2EF6D7000E5BAE010E5BAC020ED0
:1007C0005BAA030E5BA8040E366E120066D89CD896
:1007D00010EE42F0050E5A6EEE50E66E5A2EFCD721
:1007E0000F5207E010A6FAEC04F02FA2E2D810BED8
:1007F00044D809C04AF00AC04BF00BC04CF00CC002
:100800004DF00DC04EF0DED93CC05EF03DC05FF053
:100810003EC060F03FC061F040D87CD810EE42F09E
:10082000050E5A6EEE50E66E5A2EFCD70F5211E0AE
:1008300010A6FAEC04F02FB20AD0010E315C05E0EC
:10084000020E315C02E094D802D010BA91D810BEEA
:1008500014D809C04AF00AC04BF00BC04CF00CC0D1
:100860004DF00DC04EF0AED93CC062F03DC063F01B
:100870003EC064F03FC065F01200D8904236433667
:100880004436453646364236433644364536463695
:1008900012007BEF0CF08DEF0CF013D809D8426AF0
:1008A000436A446A456A466A476A486A496A120066
:1008B0004A6A4B6A4C6A4D6A4E6A4F6A506A516A7C
:1008C0001200386A396A3A6A3B6A3C6A3D6A3E6A93
:1008D0003F6A406A416A120038C042F039C043F0B2
:1008E0003AC044F03BC045F03CC046F0120038C06E
:1008F0004AF039C04BF03AC04CF03BC04DF03CC020
:100900004EF0120010EE38F000EE1BF02DB800EEA5
:1009100020F012002EA6F8D700EE1BF02DA800EE56
:1009200020F01200B1D8EECF38F0EECF39F0EECF94
:100930003AF0EECF3BF0200E5B6ED8903B323A326D
:10094000393238323F323E323D323C3200EE38F0FE
:10095000040E5A6EEFAE02D0300EEF5EEFA602D05C
:10096000030EEF5EEE525A2EF5D75B2EE6D712003D
:100970002FB409D017504226185043221950442250
:100980001A50452208D01750425E1850435A195049
:10099000445A1A50455A45AE1200421E431E441E88
:1009A000451E422AD8B4432AD8B4442AD8B4452A8A
:1009B00012002FB409D01350422614504322155070
:1009C00044221650452208D01350425E1450435A18
:1009D0001550445A1650455A45AE1200421E431E49
:1009E000441E451E422AD8B4432AD8B4442AD8B457
:1009F000452A1200466A58EC04F00A0E4A6E4BEC87
:100A000006F06CEC04F058EC04F00A0E4A6EE2ECCE
:100A100005F06CEF04F009C042F00AC043F00BC0CF
:100A200044F00CC045F00DC046F0200E5B6E00EEA9
:100A300042F010EE4AF0396AD8903F323E323D32F1
:100A40003C32D8A015D0080E5A6E00EE42F010EEDF
:100A50004AF0EECF38F03950396AE72602E3010E4A
:100A6000396E3850E62602E3010E396E5A2EF1D760
:100A7000D8904236433644364536463647364836B1
:100A800049365B2ED4D71200416A406A3F6A3E6AFB
:100A90003D6A3C6A3B6A3A6A396A386A1200F9DF91
:100AA00031DF2CB00FD00E5031E0010E0E5C2BE088
:100AB000020E0E5C25E0030E0E5C1AE0040E0E5CC6
:100AC00010E012000E5027E0010E0E5C1CE0020E3A
:100AD0000E5C16E0030E0E5C10E0040E0E5C01E0EE
:100AE0001200A00E386E860E396E010E3A6E61D07D
:100AF000030E396EE80E386E5CD0C80E386E59D0D1
:100B0000320E386E56D00A0E386E53D0382A51D075
:100B1000020E386E4ED0050E386E4BD0BADFF2DEC4
:100B20002CB00FD00E5037E0010E0E5C2BE0020E01
:100B30000E5C25E0030E0E5C1AE0040E0E5C10E065
:100B400012000E5022E0010E0E5C1CE0020E0E5C44
:100B500016E0030E0E5C10E0040E0E5C01E01200C5
:100B6000A00E386E860E396E010E3A6E16D0030E48
:100B7000396EE80E386E11D0C80E386E0ED0320EB7
:100B8000386E0BD00A0E386E08D0050E386E05D0C0
:100B9000020E386E02D0382A00D0050E5A6ED86A7E
:100BA000E750D8A0E73CEF5EEE52E6525A2EF8D757
:100BB0001200E650EE26040E5A6EE650EE225A2E31
:100BC000FCD712000A0E5A6E00EE38F0EE6A5A2E6A
:100BD000FDD72F9646BE40D84EBE4DD8050E5A6E54
:100BE00000EE4AF020EE38F0050E5B6E5A505B5E68
:100BF00010EE42F020EE38F05B5203E0DE525B2E46
:100C0000FDD7050E5B6E030E5C6EEF50E602F350EF
:100C1000DE26F450DE22E86ADE225C2EFCD7040ECB
:100C20005C6EDD525C2EFDD75B2EEDD7EE525A2E58
:100C3000DBD72FB601D81200381E391E3A1E3B1ED4
:100C40003C1E382AD8B4392AD8B43A2AD8B43B2A18
:100C5000D8B43C2A2F961200421E431E441E451E45
:100C6000461E422AD8B4432AD8B4442AD8B4452AC6
:100C7000D8B4462A0ED04A1E4B1E4C1E4D1E4E1E88
:100C80004A2AD8B44B2AD8B44C2AD8B44D2AD8B45E
:100C90004E2A2F7612002F9646BEDEDF4EBEEBDFC9
:100CA0004E9E469E5A6A0DDE5A2AD8904EBE1BD0E2
:100CB0004A364B364C364D364E364E50465C0BE17E
:100CC0004D50455C08E14C50445C05E14B50435CA1
:100CD00002E14A50425CE8E2F4DDD8904E324D32F7
:100CE0004C324B324A324E50465C0BE14D50455C23
:100CF00008E14C50445C05E14B50435C02E14A5032
:100D0000425C0AE34A50425E4B50435A4C50445AAC
:100D10004D50455A4E50465A383639363A363B369B
:100D20003C365A2EDAD72FB687DF1200386A396A76
:100D30003A6A3B6A3C6A3D6A280E5A6E060E5B6E42
:100D400000EE38F0EF500F0B7D6E050E7D5CD8A0E5
:100D500002D0030EEF26EF50F00B7D6E500E7D5C3F
:100D6000D8A002D0300EEF26EC525B2EEBD7D890F5
:100D700042364336443645364636383639363A36C4
:100D80003B363C363D365A2ED9D712002F9C8CBFAD
:100D90002F8C8C9F00EE7EF00C0E5A6E8A515A5C9E
:100DA0008A6F8B515A5C8B6F2D9A8C515A5E8B07D0
:100DB000D8B42D8A8B2B8B5303E12C0EE8EC02F078
:100DC000EE505B6E8A530CE12DBA06D0300E5B5CA0
:100DD00003E1200E5B6E01D02D8A5B50E8EC02F03F
:100DE0008A5301E08A078B075A2EE1D78C5303E020
:100DF0008C512FAC6CDC12007E6A7F6A806B816B39
:100E0000826B836B846B856B866B876B886B896B5E
:100E100000EE7EF010EE3DF0060E5A6EE7380F0B36
:100E200005D8E55003D85A2EF9D712000F0B300918
:100E3000EE6E12000F0B04E12DAA02D0200E02D09C
:100E400030092D9AE8EF02F02DB24AD22FB0CCD063
:100E50000F5202E010B044D1400E35DC410E2DA8F7
:100E6000420E2EA603D0610E2DA8620EE8EC02F011
:100E70002DB80BD020C042F021C043F022C044F076
:100E800023C045F024C046F00AD01BC042F01CC06D
:100E900043F01DC044F01EC045F01FC046F032D8DC
:100EA000030E67EF03F0E86A63EC03F0410E2DB820
:100EB000420E2EA603D0610E2DB8620EE8EC02F0B1
:100EC0002DB80BD01BC042F01CC043F01DC044F035
:100ED0001EC045F01FC046F00AD020C042F021C01D
:100EE00043F022C044F023C045F024C046F00AD8A5
:100EF0002CA006D00C0E63EC03F02E0EE8EC02F0F2
:100F00009BEF07F000EE42F010EE27F052DE0EDF0E
:100F100073DF0B0E8A6F060E8B6F010E8C6F2CB079
:100F200007D00EC08CF0040E0E5C02E1050E8C6F33
:100F3000C6EC06F012000D0E63EC03F010BE02D0FA
:100F4000315209E1000EF86E370EF76EC60EF66EDE
:100F500073EC03F01200010E315C09E1000EF86E33
:100F6000370EF76ECC0EF66E73EC03F01200020E25
:100F7000315C09E1000EF86E370EF76ED20EF66E98
:100F800073EC03F01200030E315C09E1000EF86E01
:100F9000370EF76ED80EF66E73EC03F01200040EE7
:100FA000315C09E1000EF86E370EF76EDE0EF66E5C
:100FB00073EC03F01200050E315C09E1000EF86ECF
:100FC000370EF76EE40EF66E73EC03F01200060EA9
:100FD000315C09E1000EF86E370EF76EEA0EF66E20
:100FE00073EC03F0120012000F52D8B41200000E7E
:100FF000F86E380EF76E0A0EF66E73EC03F03CECEA
:1010000009F05D6E5D325D325D301F0B090F5D6E64
:1010100044DC5DC042F08ADE38506CEC03F0090E0F
:1010200067EF03F0B7C04AF0B8C04BF0B9C04CF05E
:10103000BAC04DF0BABF4E681200BBC04AF0BCC087
:101040004BF0BDC04CF0BEC04DF0BEBF4E681200AC
:101050004DEC04F04BEC09F08DC042F08EC043F033
:1010600012EC08F0E2EC05F06CEC04F01DEC08F07A
:101070004A5042264B5043224C5044224D50452268
:101080004E50462246BE4FEC04F058EC04F0500E91
:101090004A6EC30E4B6E000E4C6E4A5042264B50A9
:1010A00043224C5044224D5045224E50462258EC8B
:1010B00004F0A00E4A6E860E4B6E010E4C6E4BEC89
:1010C00006F038C06FF038C071F0712AD8907132D4
:1010D00042C070F06FAE03D06F6A706A716A12001E
:1010E00072506F5CD8B448D06FC072F0400E63ECA1
:1010F00003F00D0E5A6E050E5A6202D0070E01D093
:10110000060EE8EC02F05A2EF6D7400E63EC03F020
:101110006FC05AF0D8905A325B6A5A520EE05B2A7E
:101120000E0E5B6018D0090E5B6202D0030E01D078
:10113000010EE8EC02F05A2EF2D76FA00CD05B2A19
:101140000E0E5B6008D0090E5B6202D0020E01D069
:10115000000EE8EC02F04E0E63EC03F0530EE8ECE8
:1011600002F0090E716404D02B0EE8EC02F004D0FA
:1011700071503009E8EC02F012006F506CEC03F093
:1011800065EC03F070506CEC03F065EC03F071500B
:101190006CEC03F065EC03F012004DEC04F05BEC3A
:1011A00003F085D8C3CF4AF0C4CF4BF0260E436E70
:1011B0004D0E426EE2EC05F0426A436A446A456AAB
:1011C000466A3AC042F039BE422AB0DD15DE030E4F
:1011D0008A6F010E8B6F8C6B030E63EC03F0D6DD10
:1011E000000EF86E380EF76E020EF66E73EC03F01A
:1011F00099EF02F04DEC04F050D8C3CF42F0C4CFC9
:1012000043F01E0E4A6E000E4B6E4A5042264B5063
:1012100043224A6A4B6A4C6A4D6A4E6A640E4A6EB1
:10122000D1DC6CEC04F0170E4B6E810E4A6E33DD90
:1012300038C030F012004DEC04F02BD8C3CF42F090
:10124000C4CF43F0660E4A6E000E4B6E4A504226E3
:101250004B5043224A6A4B6A4C6A4D6A4E6A640E8E
:101260004A6EB0DC6CEC04F04F0E4B6EEC0E4A6E26
:1012700012DD3828326E1200C19E17D88E51596E79
:10128000C18E120014D8C3CF67F0C4CF68F02E8E81
:101290001200F90E0DD0F10E0BD0E90E09D0E10EBF
:1012A00007D0D90E05D0D10E03D0C90E01D0C10E82
:1012B000C26E640E5A6E5A2EFED7C284C2B4FED7D6
:1012C000C4CF8EF0C3CF8DF01200386E6E0E380290
:1012D000F3CF38F0F4CF39F038BE392A3950120044
:1012E000010E525C08E1000EF86E380EF76E680EC3
:1012F000F66E73EC03F0020E525C08E1000EF86E1D
:10130000380EF76E7A0EF66E73EC03F0030E525C35
:1013100008E1000EF86E380EF76E8C0EF66E73EC68
:1013200003F0040E525C08E1000EF86E380EF76E02
:101330009E0EF66E73EC03F0050E525C08E1000E93
:10134000F86E380EF76EB00EF66E73EC03F0060E04
:10135000525C08E1000EF86E380EF76EC20EF66EA3
:1013600073EC03F0070E525C08E1000EF86E380EC5
:10137000F76ED40EF66E73EC03F0080E525C08E1C3
:10138000000EF86E380EF76EE60EF66E73EC03F094
:10139000090E525C08E1000EF86E380EF76EF80E7A
:1013A000F66E73EC03F00A0E525C08E1000EF86E64
:1013B000390EF76E0A0EF66E73EC03F00B0E525CEC
:1013C00008E1000EF86E390EF76E1C0EF66E73EC27
:1013D00003F00C0E525C08E1000EF86E390EF76E49
:1013E0002E0EF66E73EC03F012002E9A376AB8ECEC
:1013F00002F02D722DB202D0010E526E2E8C726848
:101400005BEC03F0BCD01ED9010E525C01E113D994
:10141000020E525C01E1EAD8030E525C01E1DBD816
:10142000040E525C02E1F7EC17F0050E525C02E18B
:10143000010E326E060E525C02E1020E326E070E93
:10144000525C02E1000E306E080E525C02E1030EA7
:10145000306E090E525C02E1060E306E0A0E525CCE
:1014600002E1090E306E0B0E525C02E10C0E306E82
:101470000C0E525C02E10F0E306E7DD0E3D8010EEF
:10148000525C01E1C5D8020E525C01E1BAD8030EEC
:10149000525C02E13CD978D9040E525C01E193DA46
:1014A000050E525C02E1030E326E060E525C02E142
:1014B000050E326E070E525C02E1010E306E080E10
:1014C000525C02E1040E306E090E525C02E1070E1E
:1014D000306E0A0E525C02E10A0E306E0B0E525C48
:1014E00002E10D0E306E0C0E525C02E1100E306EF9
:1014F00042D0A8D8010E525C01E149D8020E525CDC
:1015000009E1040E0E5C05E0040E0E6E2E8C72686E
:1015100001D07ED8030E525C01E12C70040E525CA7
:1015200002E13BDE14D1050E525C02E1040E326E84
:10153000060E525C02E1060E326E070E525C02E1AC
:10154000020E306E080E525C02E1050E306E090E7E
:10155000525C02E1080E306E0A0E525C02E10B0E84
:10156000306E0B0E525C02E10E0E306E0C0E525CB1
:1015700002E1110E306E366A010E526E2D928DEC24
:1015800002F0FDE25BEC03F02E8C726812002EB6C6
:101590000BD016D82DB804D01ED825C026F006D002
:1015A00025D826C025F002D006D838D92E762E8C24
:1015B00072682D80120010EE1BF020EEABF004D00C
:1015C00020EE1BF010EEABF00C0E5A6EDECFE6FFF5
:1015D0005A2EFCD712001BC020F01CC021F01DC0E9
:1015E00022F01EC023F01FC024F0B1D020C01BF099
:1015F00021C01CF022C01DF023C01EF024C01FF02B
:10160000A6D02D742DA41200010E0E6E2E8C120089
:10161000376A0F5206E10E2A050E0E5C09E30E6AC8
:1016200007D00E2A040E0E5C03E30E6A10A60E2AE3
:101630002E8C72681200F7D82D78F0D82D802E8C61
:1016400072681200376AB8EC02F0010E525C12E1C7
:10165000050E5A6E8DEC02F00DE3A3EC02F05A2E4B
:10166000F9D7B4EC02F0A3EC02F0020E526E8DEC4E
:1016700002F0FDE252501200310433EC00F0056E2E
:1016800000EE13F0040E5A6E9AEF0BF0310433ECB7
:1016900000F0056E00EE17F0040E5A6EA1EC0BF090
:1016A000310433EC00F0056E00EE13F0040E5A6EB8
:1016B000315209E1136A146A156A166A176A186AC0
:1016C000196A1A6A1200A1EF0BF023EC00F0056E04
:1016D00000EE1BF0040E5A6E1200276A286A296A6F
:1016E0002A6A2B6AF2DF2DD8EE52F4DF2AD8EE52A6
:1016F000020E5A6E26D80D0E0F5C03E3050E5A6ECD
:1017000020D82F9425BE2F84259E88D812008BD8F0
:101710002FB4258EDADF0ED8EE52DCDF0BD8EE5276
:10172000020E5A6E07D80D0E0F5C03E3050E5A6EBB
:1017300001D81200EE50066E52D8052A5A2EFAD75A
:10174000120062D8EE6E052A5A2EFBD71200010E47
:10175000526E2D922E8C72685BEF03F0056A0A0EB2
:101760005A6E00EE09F006D8220E056E0A0E5A6E69
:1017700000EEB7F049D8EE6E052A5A2EFBD7FE0EC2
:10178000056E42D82C6E1200056A0A0E5A6E00EEE3
:1017900009F006D8220E056E0A0E5A6E00EEB7F05A
:1017A000EECF06F01CD8052A5A2EFAD7FE0E056E8B
:1017B0002CC006F014D81200000EF86E7F0EF76EE3
:1017C000000EF66EF29E2F885A6A056A0900F550DF
:1017D000066E05D8052A5A2EF9D700EF00F0A6B2FA
:1017E000FED70550A96E0650A86EA69EA69CA6849C
:1017F000F29EF2BEFDD7550EA76EAA0EA76EA68268
:101800002FA8F28EA6941200A6B2FED70550A96E9C
:10181000A69EA69CA680A850066E120025502DB844
:101820002650326E12002DB831C026F02DA831C0DE
:1018300025F01200115214E0010E115C10E0020EAE
:10184000115C0DE0030E115C2FE0040E115C2FE023
:10185000050E115C2FE0060E115C2FE01200120045
:101860000BD8440E926FBB0E916F0AD8470E926F41
:10187000AE0E916F40EF0CF0200E926F000E916F44
:101880008290925104D8915102D882801200386E11
:10189000080E5A6E3836D8A08294D8B082848292CC
:1018A00082825A2EF7D71200240E386E08D02C0EE2
:1018B000386E05D0A40E386E02D0040E386E8292B7
:1018C00082908294829A010E906F0AD8906B08D809
:1018D000906B06D838C090F003D8828082901200B6
:1018E000080E5A6E9037D8B0828482828292829497
:1018F0005A2EF8D712005EC093F05FC094F060C01B
:1019000095F061C096F0115211E0010E115C29E0D2
:10191000020E115C23E045D0120062C093F063C058
:1019200094F064C095F065C096F0EDD7A5DF93C044
:1019300091F094C092F0929F928DA2DF93379437EA
:1019400095379637933794379537963795C091F0FA
:1019500096C092F0929F928D40EF0CF03B6A3B80D4
:1019600001D03B6A93C03AF00FD894C03AF00CD83B
:1019700095C03AF009D896C03AF006D83BC03AF084
:1019800003D8828082901200080E5A6E3A32D8A094
:1019900002D0828401D08294828282925A2EF6D71B
:1019A0001200040E906F9CDF96C090F099DF95C0F6
:1019B00090F096DF94C090F093DF93C090F090DFAA
:1019C00082808290120083845BEC03F08DEC02F045
:1019D000FDE2376A010E976F2BD837BE0AD0375019
:1019E0007C0B14E0972B1B0E975D02E1010E976FA5
:1019F0000BD037C05DF05D6C5D50FC0B07E09707C6
:101A0000972902E11A0E976F13D8376A8DEC02F00E
:101A1000E4E3B8EC02F0CFEC03F0010E365C03E136
:101A200076D900EF00F0040E365CF0E1BBEF0AF06F
:101A3000000EF86E340EF76E100EF66E73EC03F0B7
:101A4000E86A63EC03F0010E975D0DE1000EF86E9D
:101A5000340EF76E220EF66E76EC03F010A054D919
:101A600010B04FD91200020E975D0DE1000EF86E16
:101A7000340EF76E320EF66E76EC03F010A444D9F5
:101A800010B43FD91200030E975D0DE1000EF86E01
:101A9000340EF76E420EF66E76EC03F010A234D9D7
:101AA00010B22FD91200040E975D0DE1000EF86EF2
:101AB000340EF76E520EF66E76EC03F010A624D9B3
:101AC00010B61FD91200050E975D0DE1000EF86EDD
:101AD000340EF76E620EF66E76EC03F010A814D991
:101AE00010B80FD91200060E975D0DE1000EF86ECA
:101AF000340EF76E720EF66E76EC03F010AA04D96F
:101B000010BAFFD81200070E975D0DE1000EF86EB7
:101B1000340EF76E820EF66E76EC03F02FA4F4D836
:101B20002FB4EFD81200080E975D0DE1000EF86E8D
:101B3000340EF76E920EF66E76EC03F010ACE4D82D
:101B400010BCDFD81200090E975D0DE1000EF86E93
:101B5000340EF76EA20EF66E76EC03F010AED4D80B
:101B600010BECFD812000A0E975D09E1000EF86E84
:101B7000340EF76EB20EF66E76EC03F012000B0E1A
:101B8000975D09E1000EF86E340EF76EC40EF66E26
:101B900076EC03F012000C0E975D09E1000EF86E72
:101BA000340EF76ED60EF66E76EC03F012000D0EC4
:101BB000975D09E1000EF86E340EF76EE80EF66ED2
:101BC00076EC03F012000E0E975D09E1000EF86E40
:101BD000340EF76EFA0EF66E76EC03F012000F0E6E
:101BE000975D09E1000EF86E350EF76E0C0EF66E7D
:101BF00076EC03F01200100E975D09E1000EF86E0E
:101C0000350EF76E1E0EF66E76EC03F01200110E16
:101C1000975D0AE1000EF86E350EF76E300EF66E27
:101C200076EC03F013EF14F0120E975D09E1000E4D
:101C3000F86E350EF76E400EF66E76EC03F012007D
:101C4000130E975D09E1000EF86E350EF76E520E19
:101C5000F66E76EC03F01200140E975D09E1000EAB
:101C6000F86E350EF76E640EF66E76EC03F0120029
:101C7000150E975D09E1000EF86E350EF76E760EC3
:101C8000F66E76EC03F01200160E975D09E1000E79
:101C9000F86E350EF76E880EF66E76EC03F01200D5
:101CA000170E975D09E1000EF86E350EF76E9A0E6D
:101CB000F66E76EC03F01200180E975D09E1000E47
:101CC000F86E350EF76EAC0EF66E76EC03F0120081
:101CD000190E975D09E1000EF86E350EF76EBE0E17
:101CE000F66E76EC03F012001A0E975D09E1000E15
:101CF000F86E350EF76ED00EF66E76EC03F012002D
:101D00001200310EE8EF02F0300EE8EF02F08DEC39
:101D100002F0FDE25BEC03F0010E975D01E14AD3B6
:101D2000020E975D01E1EAD2030E975D01E109D34E
:101D3000040E975D01E1C3D2050E975D01E1A0D2CB
:101D4000060E975D01E157D3070E975D01E133D28F
:101D5000080E975D01E175D2090E975D01E152D23F
:101D60000A0E975D01E162D10B0E975D03E1010E52
:101D7000316E50D00C0E975D03E1020E316E4AD0E9
:101D80000D0E975D03E1030E316E44D00E0E975D8C
:101D900003E1040E316E3ED00F0E975D03E1050E98
:101DA000316E38D0100E975D03E1060E316E32D0E1
:101DB000110E975D02E18BEF13F0120E975D01E1BA
:101DC0003BD3130E975D02E136EF15F0140E975DCD
:101DD00002E126EF14F0150E975D02E1C1EF14F059
:101DE000160E975D02E171EF14F0170E975D02E198
:101DF000EAEF15F0180E975D02E14DEF17F0190E9E
:101E0000975D02E136EF16F01A0E975D02E1D2EF10
:101E100016F0120031C025F02D98376A50EC0BF007
:101E20002F8213C09EF014C09FF015C0A0F016C002
:101E3000A1F05BEC03F0000EF86E360EF76E420E6A
:101E4000F66E73EC03F0000E986FEAD8000EF86E91
:101E5000200EF76E1C0EF66E76EC03F09EC01BF0A3
:101E60009FC01CF0A0C01DF0A1C01EF0E6EC03F066
:101E700049EC04F0E86A63EC03F09EC042F09FC0B6
:101E800043F0A0C044F0A1C045F096EC06F0FCEC95
:101E900006F00A0E8A6F060E8B6F98C08CF0C6ECA7
:101EA00006F0375201E17ED0996B9A6B9B6B9C6B6D
:101EB00037BE3AD0985308E19E2BD8B49F2BD8B4A4
:101EC000A02BD8B4A12B6CD0020E985D0BE1640E50
:101ED000996F99519E279A519F239B51A0239C5102
:101EE000A1235ED0040E985D0DE1100E996F270EB0
:101EF0009A6F99519E279A519F239B51A0239C51E1
:101F0000A1234ED0060E985D0FE1400E996F420E50
:101F10009A6F0F0E9B6F99519E279A519F239B5149
:101F2000A0239C51A1233CD098530BE19E079E29EE
:101F300007E19F079F2904E1A007A02901E1A1076C
:101F40002FD0020E985D0BE1640E996F99519E5F40
:101F50009A519F5B9B51A05B9C51A15B21D0040EC9
:101F6000985D0DE1100E996F270E9A6F99519E5F43
:101F70009A519F5B9B51A05B9C51A15B11D0060EB7
:101F8000985D0EE1400E996F420E9A6F0F0E9B6F97
:101F900099519E5F9A519F5B9B51A05B9C51A15BA5
:101FA000376A5CD78DEC02F001E27BD7B8EC02F027
:101FB000CFEC03F0010E365C07E1982B982B080E4E
:101FC000985D01E1986B1BD0020E365C07E1980723
:101FD000980798AF02D0060E986F08D0030E365CB3
:101FE00001E111D0040E365C01E10ED019D8000ECB
:101FF000F86E200EF76E1C0EF66E76EC03F08DEC8C
:1020000002F0FDE22BD712009EC013F09FC014F027
:10201000A0C015F0A1C016F03CEF0BF04D487A00BF
:10202000E86A63EC03F00D0E67EF03F02D982F8242
:1020300009C09EF00AC09FF00BC0A0F00CC0A1F038
:102040000DC0A2F05BEC03F0000EF86E360EF76EDA
:10205000420EF66E73EC03F0050E986FE6EC03F09B
:1020600049EC04F0DDDFE86A63EC03F098C05AF055
:1020700000EE0DF0ED506CEC03F05A2EFBD737520A
:1020800061E037BE29D0050E985D09E1092AD8B470
:102090000A2AD8B40B2AD8B40C2AD8B40D2A040EB4
:1020A000985D07E10A2AD8B40B2AD8B40C2AD8B410
:1020B0000D2A030E985D05E10B2AD8B40C2AD8B47A
:1020C0000D2A020E985D03E10C2AD8B40D2A010EE8
:1020D000985D01E10D2A34D0050E985D0DE10906E9
:1020E00009280AE10A060A2807E10B060B2804E181
:1020F0000C060C2801E10D06040E985D0AE10A06A3
:102100000A2807E10B060B2804E10C060C2801E164
:102110000D06030E985D07E10B060B2804E10C0683
:102120000C2801E10D06020E985D06E10C060C2854
:10213000D8B40D06D8B40C52010E985D01E10D061D
:10214000376A8CD78DEC02F09AE3B8EC02F0CFEC52
:1021500003F0010E365C06E19807985302E1050E84
:10216000986F12D0020E365C07E1982B060E985D30
:1021700002E1010E986F08D0030E365C01E108D031
:10218000040E365C01E10FD08DEC02F0FDE266D763
:102190009EC009F09FC00AF0A0C00BF0A1C00CF0D7
:1021A000A2C00DF01200000E056E00EE09F0050E43
:1021B0005A6E9AEF0BF0000EF86E350EF76EE80EC1
:1021C000F66E73EC03F0000EF86E360EF76E9C0E92
:1021D000F66E73EC03F08DEC02F0FDE3CFEC03F050
:1021E000010E365C0EE0020E365C0BE0030E365C30
:1021F00002E12F8404D0040E365C03E12F9487ECB7
:102200000BF01200000EF86E370EF76E2A0EF66E07
:1022100073EC03F0BAD88DEC02F0FDE3CFEC03F0E1
:10222000010E365C0DE0020E365C0AE0030E365CF1
:1022300002E1388E04D0040E365C02E1389EB4D040
:102240001200000EF86E370EF76E180EF66E73EC75
:1022500003F09BD88DEC02F0FDE3CFEC03F0010E10
:10226000365C0DE0020E365C0AE0030E365C02E1DD
:10227000388C04D0040E365C02E1389C95D01200F4
:10228000000EF86E360EF76E540EF66E73EC03F019
:102290007CD88DEC02F0FDE3CFEC03F0010E365C50
:1022A0000DE0020E365C0AE0030E365C02E138886F
:1022B00004D0040E365C02E1389876D01200000E8D
:1022C000F86E360EF76E300EF66E73EC03F05DD8D6
:1022D0008DEC02F0FDE3CFEC03F0010E365C0DE077
:1022E000020E365C0AE0030E365C02E1388604D04A
:1022F000040E365C01E1389657D01200000EF86EDD
:10230000350EF76EFA0EF66E73EC03F03ED88DECD8
:1023100002F0FDE3B8EC02F0CFEC03F0010E365C06
:102320000FE0020E365C0CE0030E365C03E13884ED
:10233000389205D0040E365C02E13894389234D0DD
:102340001200000EF86E360EF76E0C0EF66E73EC81
:1023500003F01BD88DEC02F0FDE3B8EC02F0CFECFB
:1023600003F0010E365C10E0020E365C0DE0030E49
:10237000365C04E138823894838405D0040E365CE0
:1023800003E13892389410D01200070E056E04EC69
:102390000CF006C038F0000EF86E350EF76EE80E41
:1023A000F66E73EC03F0120038C006F0070E056EEF
:1023B000EFEF0BF0000EF86E360EF76E1E0EF66E97
:1023C00073EC03F0E2DF8DEC02F0FDE3B8EC02F019
:1023D000CFEC03F0010E365C0DE0020E365C0AE035
:1023E000030E365C02E1388004D0040E365C02E154
:1023F0003890DAD71200000EF86E360EF76E660EC1
:10240000F66E73EC03F0C1DF8DEC02F0FDE3B8EC87
:1024100002F0CFEC03F0010E365C0DE0020E365CEC
:102420000AE0030E365C02E1388A04D0040E365C02
:1024300002E1389AB9D71200000EF86E360EF76E28
:10244000780EF66E73EC03F0000EF86E360EF76E33
:102450008A0EF66E73EC03F08DEC02F0FDE3CFEC28
:1024600003F0040E365C0DE0010E365C06E1276ACF
:10247000286A296A2A6A2B6A4CD18DEC02F0FDE2A7
:10248000EBD78DEC02F0FDE22D98376A27C09EF065
:1024900028C09FF029C0A0F02AC0A1F02BC0A2F054
:1024A0001B509E271C509F231D50A0231E50A1236C
:1024B0001F50A2235BEC03F0000EF86E360EF76E91
:1024C000420EF66E73EC03F0000E986FA9DD000E5D
:1024D000F86E200EF76E1C0EF66E76EC03F0E86ACE
:1024E00063EC03F09EC042F09FC043F0A0C044F0F4
:1024F000A1C045F0A2C046F096EC06F0FCEC06F058
:102500000B0E8A6F060E8B6F98C08CF0C6EC06F02F
:10251000375201E1B8D0996B9A6B9B6B9C6B9D6BAA
:1025200037BE56D098530AE19E2BD8B49F2BD8B40F
:10253000A02BD8B4A12BD8B4A22BA3D0020E985DA7
:102540000DE1640E996F99519E279A519F239B51DB
:10255000A0239C51A1239D51A22393D0040E985DEA
:102560000FE1100E996F270E9A6F99519E279A517D
:102570009F239B51A0239C51A1239D51A22381D035
:10258000060E985D11E1400E996F420E9A6F0F0E84
:102590009B6F99519E279A519F239B51A0239C5139
:1025A000A1239D51A2236DD0080E985D11E1E10E8B
:1025B0009A6FF50E9B6F050E9C6F99519E279A514D
:1025C0009F239B51A0239C51A1239D51A22359D00D
:1025D00098530EE19E079E290AE19F079F2907E174
:1025E000A007A02904E1A107A12901E1A20749D080
:1025F000020E985D0DE1640E996F99519E5F9A519C
:102600009F5B9B51A05B9C51A15B9D51A25B39D00C
:10261000040E985D0FE1100E996F270E9A6F995175
:102620009E5F9A519F5B9B51A05B9C51A15B9D510A
:10263000A25B27D0060E985D11E1400E996F420E05
:102640009A6F0F0E9B6F99519E5F9A519F5B9B51A2
:10265000A05B9C51A15B9D51A25B13D0080E985DBD
:1026600010E1E10E9A6FF50E9B6F050E9C6F99516C
:102670009E5F9A519F5B9B51A05B9C51A15B9D51BA
:10268000A25B376A2CD78DEC02F001E241D7B8EC9F
:1026900002F0CFEC03F0010E365C07E1982B982B8B
:1026A0000A0E985D01E1986B1BD0020E365C07E1C3
:1026B0009807980798AF02D0080E986F08D0030EBD
:1026C000365C01E111D0040E365C01E10ED0A8DCCD
:1026D000000EF86E200EF76E1C0EF66E76EC03F010
:1026E0008DEC02F0FDE2FBD612001B509E5F1C50E9
:1026F0009F5B1D50A05B1E50A15B1F50A25B9EC044
:1027000027F09FC028F0A0C029F0A1C02AF0A2C0E5
:102710002BF087EF0BF08DEC02F0FDE2000EF86E6F
:10272000360EF76E420EF66E73EC03F02AD88DEC7F
:1027300002F0FDE28DEC02F0FDE3B8EC02F0CFEC2C
:1027400003F0010E365C06E1112A070E115C01E16F
:10275000116AE1D7020E365C06E11106112802E18A
:10276000060E116ED8D7030E365C01E109D0040EB7
:10277000365C06E1080E056E11C006F0EFEF0BF0B7
:102780001200115209E1000EF86E330EF76EA00E22
:10279000F66E73EC03F047D0010E115C09E1000EF8
:1027A000F86E330EF76EB00EF66E73EC03F03BD09E
:1027B000020E115C09E1000EF86E330EF76EC00ECA
:1027C000F66E73EC03F02FD0030E115C09E1000EDE
:1027D000F86E330EF76ED00EF66E73EC03F023D066
:1027E000040E115C09E1000EF86E330EF76EE00E78
:1027F000F66E73EC03F017D0050E115C09E1000EC4
:10280000F86E330EF76EF00EF66E73EC03F00BD02D
:10281000060E115C08E1000EF86E340EF76E000E25
:10282000F66E73EC03F0426A436A446A456A466A8C
:1028300011C042F096EC06F0FCEC06F0020E8A6F36
:10284000000E8B6F000E8C6FC6EF06F0376A000E1D
:10285000F86E360EF76EAE0EF66E73EC03F0000EE9
:10286000F86E370EF76EC00EF66E73EC03F04DEC9B
:1028700004F0C0C042F096EC06F0FCEC06F0030E4B
:102880008A6F000E8B6F000E8C6FC6EC06F065EC45
:1028900003F0E2EC17F0D6EC18F007EC19F08DEC31
:1028A00002F00BE3B8EC02F0CFEC03F0040E365C60
:1028B00001E11200010E365C11E03752F0E037BE44
:1028C00005D037A8ECD7C02B376AC9D7376C37A8E3
:1028D00003D0C007376AC3D7376CE1D7C4EC0BF01D
:1028E0001200000EF86E360EF76EAE0EF66E73EC3A
:1028F00003F0000EF86E370EF76EB20EF66E73EC44
:1029000003F04DEC04F012C042F0050E4A6EE2EC0A
:1029100005F06CEC04F096EC06F0FCEC06F0040E0E
:102920008A6F000E8B6F000E8C6FC6EC06F0000EE7
:10293000F86E370EF76EBC0EF66E76EC03F08DEC8B
:1029400002F00BE3B8EC02F0CFEC03F0040E365CBF
:1029500001E11200010E365C11E03752F0E037BEA3
:1029600005D037A8ECD7122A376AC3D7376C37A8F7
:1029700003D01206376ABDD7376CE1D7C4EC0BF031
:102980001200000EF86E360EF76EAE0EF66E73EC99
:1029900003F02D84BBEC03F0000EF86E370EF76EDB
:1029A0003C0EF66E73EC03F0436A446A456A466A6D
:1029B000BFC042F096EC06F038506CEC03F0300EDD
:1029C000E8EC02F0000EF86E370EF76E420EF66E6F
:1029D00076EC03F08DEC02F00BE3B8EC02F0CFECF8
:1029E00003F0040E365C01E11200010E365C11E0CA
:1029F0003752F0E037BE05D037A8ECD7BF2B376A87
:102A0000C8D7376C37A803D0BF07376AC2D7376C2F
:102A1000E1D7C4EC0BF01200000E63EC03F0BA51E6
:102A20006CEC03F0B9516CEC03F0B8516CEC03F0B2
:102A3000B7516CEC03F065EC03F0400E63EC03F06F
:102A4000BE516CEC03F0BD516CEC03F0BC516CEC6E
:102A500003F0BB516CEC03F065EC03F097EF02F070
:102A60008E516CEC03F08D516CEF03F0000EF86E9C
:102A7000360EF76EAE0EF66E73EC03F0000EF86EC7
:102A8000360EF76EC00EF66E73EC03F04BEC09F0E9
:102A9000E7DFA1EC02F08DEC02F0F0E3B8EC02F01D
:102AA000CFEC03F0040E365C01E11200010E365C3F
:102AB00001E0E4D78DEC02F0FDE28DC000F18EC0A4
:102AC00001F1000EF86E360EF76EC80EF66E73EC5E
:102AD00003F04BEC09F0C4DFA1EC02F08DEC02F046
:102AE000F0E3B8EC02F0CFEC03F0040E365C01E149
:102AF0001200010E365C01E0E4D78DEC02F0FDE23D
:102B00008DC002F18EC003F14DEC04F000C142F023
:102B100001C143F002C14AF003C14BF042504A5E8A
:102B200043504B5A44504C5A45504D5A46504E5AB9
:102B30004FEC04F0A00E426EF00E436E190E446E80
:102B40004BEC06F038C0B7F039C0B8F03AC0B9F075
:102B50003BC0BAF04DEC04F000C142F001C143F0BB
:102B6000B7C04AF0B8C04BF0B9C04CF0BAC04DF095
:102B7000E2EC05F0381E391E3A1E3B1E3C1E382A78
:102B8000D8B4392AD8B43A2AD8B43B2AD8B43C2A83
:102B900038C0BBF039C0BCF03AC0BDF03BC0BEF09D
:102BA000000EF86E360EF76ED00EF66E73EC03F074
:102BB0008DEC02F0FDE3CFEC03F0040E365C01E196
:102BC0001200010E365C01E0F3D75BEC03F024DF6A
:102BD000C4EF0BF0000EF86E360EF76EE20EF66ED6
:102BE00073EC03F0000EF86E360EF76EAE0EF66E56
:102BF00073EC03F08DEC02F0FDE3B8EC02F0CFECE7
:102C000003F0040E365C01E11200CFEC03F0010E7C
:102C1000365C01E0DFD75BEC03F0000EF86E360E99
:102C2000F76EE20EF66E73EC03F0F29E2F885C6A8C
:102C3000056A400E63EC03F005506CEC03F004EC05
:102C40000CF078EC02F0A5EC02F0052A5C2EF1D72E
:102C5000000EF86E360EF76EF40EF66E73EC03F09F
:102C600097EC02F08DEC02F0FDE21200000EF86E1F
:102C7000370EF76E460EF66E73EC03F0000EF86E2C
:102C8000360EF76EAE0EF66E73EC03F08DEC02F0BE
:102C9000FDE3B8EC02F0CFEC03F0040E365C01E18A
:102CA0001200CFEC03F0010E365C01E0DFD78DECB3
:102CB00002F0FDE2000EF86E370EF76E580EF66E5B
:102CC00073EC03F0000EF86E370EF76E6A0EF66EB8
:102CD00073EC03F08DEC02F0FDE3B8EC02F0CFEC06
:102CE00003F0010E365C15E0CFEC03F0020E365C0B
:102CF00017E0CFEC03F0030E365C19E0CFEC03F0E5
:102D0000040E365C000EF86E7E0EF76E000EF66E48
:102D100014D0000EF86E7B0EF76E000EF66E0DD01E
:102D2000000EF86E7C0EF76E000EF66E06D0000EEA
:102D3000F86E7D0EF76E000EF66EF29E2F885C6ABE
:102D4000056A03EE00F004EC0CF0EE6E052A5C2E32
:102D5000FAD703EE00F00ED8000EF86E360EF76EBE
:102D6000F40EF66E73EC03F09AEC02F08DEC02F0C8
:102D7000FDE21200200EF36EF80EF616080EEECFEE
:102D8000F5FF0C000900E82EFAD70A00840EA66EA3
:102D9000550EA76EAA0EA76EA68200000900F32E9C
:102DA000EBD712008384000EF86E370EF76E8E0E8E
:102DB000F66E73EC03F0000EF86E360EF76EAE0E84
:102DC000F66E73EC03F08DEC02F0FDE28DEC02F098
:102DD000FDE3B8EC02F0CFEC03F0040E365C01E149
:102DE0001200CFEC03F0010E365C01E0DBD78DEC76
:102DF00002F0FDE2000EF86E370EF76E580EF66E1A
:102E000073EC03F0000EF86E370EF76E6A0EF66E76
:102E100073EC03F08DEC02F0FDE3B8EC02F0CFECC4
:102E200003F0010E365C15E0CFEC03F0020E365CC9
:102E300017E0CFEC03F0030E365C19E0CFEC03F0A3
:102E4000040E365C000EF86E7E0EF76E000EF66E07
:102E500014D0000EF86E7B0EF76E000EF66E0DD0DD
:102E6000000EF86E7C0EF76E000EF66E06D0000EA9
:102E7000F86E7D0EF76E000EF66EE2EC0BF0000EB3
:102E8000F86E360EF76EF40EF66E73EC03F09AECF5
:102E900002F08DEC02F0FDE21200000EF86E370E2B
:102EA000F76E060EF66E73EC03F0000EF86E360E3B
:102EB000F76EAE0EF66E73EC03F08DEC02F0FDE3F0
:102EC000B8EC02F0CFEC03F0040E365C01E1120026
:102ED000CFEC03F0010E365C01E0DFD75BEC03F0D2
:102EE000000EF86E370EF76E060EF66E73EC03F0FA
:102EF000F29E2F885D6A056A03EE00F0400E63ECD7
:102F000003F005506CEC03F065EC03F074EC02F098
:102F1000EE6E066E6CEC03F0052A5D2EEFD7650EA3
:102F2000065C16E05BEC03F0000EF86E380EF76EF0
:102F3000480EF66E73EC03F006506CEC03F0000ED6
:102F4000F86E380EF76E560EF66E73EC03F015D071
:102F5000F29E2F885D6A056A03EE00F0EECF06F060
:102F6000EFEC0BF0052A5D2EF9D7000EF86E360E49
:102F7000F76EF40EF66E73EC03F097EC02F08DEC46
:102F800002F0FDE212001D0EAF6EAC94AC8AAB886D
:102F9000AB8E1200C3C0E1FFC4C0E2FFC151E15CCF
:102FA00002E1D89012002E98E650C56FF10EE15C58
:102FB00002E115EE00F0E1CFC3F0E2CFC4F0C5515D
:102FC000D8801200080E5B6E696A6A6A6B6A6C6A66
:102FD00053EC09F08D5169268E516A2251EC09F0AB
:102FE0008D516B268E516C225B2EF2D712008DEC28
:102FF00002F0FDE24BEC04F0838083825BEC03F093
:103000004DEC04F0DFDF6A506C5C02E169506B5CF0
:1030100005E3270E436E0F0E426E3FD069C042F0AB
:103020006AC043F0446A456A466A6B5042266C5057
:103030004322000E4B6E640E4A6E4C6A4D6A4E6A15
:103040004F6A506AE2EC05F038C042F039C043F0F4
:103050003AC044F03BC045F03CC046F038C079F07F
:1030600039C07AF069C04AF06AC04BF04C6A4D6AC8
:103070004E6A6B504A5E6C504B5A4BEC06F038C0AF
:1030800042F039C043F03AC044F03BC045F03CC088
:1030900046F038C0A3F039C0A4F096EC06F0FCEC82
:1030A00006F0040E8A6F020E8B6F8C6B000EF86EAA
:1030B000350EF76EE20EF66E73EC03F0C6EC06F01A
:1030C000A5EC02F073D865EC03F0A1D84DEC04F048
:1030D000A3C042F0A4C043F0640E4A6E4A50425E60
:1030E0004B50435A4C50445A4D50455A4E50465AF4
:1030F00058EC04F0640E4A6EE2EC05F06CEC04F05F
:1031000058EC04F0710E4A6E020E4B6E4BEC06F05A
:103110006CEC04F058EC04F0020E4A6E4BEC06F036
:10312000100E385C05E3100EA56FA66BA76B0BD0D5
:1031300038C0A5F042C0A6F0100E426EA551425C08
:10314000A76FA667A707400E63EC03F0A567C3EC63
:1031500018F0A667CBEC18F0A767CEEC18F08DEC52
:1031600002F002E281B24CD7B8EC02F02D948392C7
:10317000839049EC04F081A2FED78DEC02F0FBE2D3
:10318000A1EC02F01200A5C05AF0010EE8EC02F02A
:103190005A2EFBD71200000EE8EF02F0A7C05AF03B
:1031A000060EE8EC02F05A2EFBD712004DEC04F0AC
:1031B00069C042F06AC043F0040E4B6EE20E4A6EE4
:1031C000E2EC05F04EEC04F06CEC04F0080E4A6EF4
:1031D0004BEC06F039C042F03AC043F03BC044F03B
:1031E0003CC045F0C0C04AF0E2EC05F06CEC04F0E5
:1031F00077EC04F0E2EC05F04EEC04F06CEC04F03B
:10320000C30E4B6E500E4A6E4BEC06F012006CEC87
:1032100004F0080E8A6F830E8C6F4D6A4E6A0F0E93
:103220004C6E420E4B6E3F0E4A6E4E50465C0BE1AA
:103230004D50455C08E14C50445C05E14B50435C0B
:1032400002E14A50425C04E2820E8C6F060E8A6FE5
:103250004D6A4E6A010E4C6E860E4B6E9F0E4A6E84
:103260004E50465C0BE14D50455C08E14C50445CCF
:1032700005E14B50435C02E14A50425C04E2810E9E
:103280008C6F050E8A6F96EC06F0FCEC06F0030ED0
:103290008B6FC6EC06F0570EE8EC02F0120010AC93
:1032A0001200800E78EC02F00F5078EF02F010ACB4
:1032B0001200810E78EC02F0315078EF02F0006ECF
:1032C000D8CF01F0E0CF02F0EACF04F0E9CF03F06D
:1032D000C2C0EAFFC1C0E9FF9EAA0ED0AE50ABA2A9
:1032E00004D0AE50AB98AB88F7D7EE6EF10EE95C28
:1032F00002E105EE00F0F0D7EACFC2F0E9CFC1F06D
:10330000F2A407D0F29466C0D6FF2DB480782DA425
:103310008098F2A207D0D02B81A602D0370601D028
:10332000372AF2929EA00BD09E90536653065466A5
:10333000540657665706000ECE6EA60ECF6EA1B885
:10334000A1989EA204D09E92565201E0560604C057
:10335000EAFF03C0E9FF02C0E0FF005001C0D8FF50
:103360001000006ED8CF01F0E0CF02F002C0E0FF05
:10337000005001C0D8FF10000056312E31342020FB
:103380002031382E31322E31320040286329444C0E
:10339000344A414C2056613A313320000C2E000053
:1033A000004144393833332F414439383334200015
:1033B000004144393835302F35312020202020007D
:1033C0000041443938353120504C4C2A36202000F9
:1033D0000041443939353120504C4C2A34202000EA
:1033E0000041443939353120504C4C2A35202000D9
:1033F0000041443939353120504C4C2A32302000BC
:1034000000414439393531206F2E20504C4C20007A
:103410004053455420202020202041626272756371
:103420006800303120532D4D6574657220202020B6
:1034300020003032204C69636874206175746F20FD
:1034400020003033204C69636874207065726D2EE3
:1034500020003034204672712031487A202020200C
:1034600020003035204B65796572202020202020F7
:1034700020003036205458205A46207065726D2E38
:10348000200030372056464F3D52582D5A462020B6
:10349000200030382042616E642F4D6F646520201B
:1034A000200030392056464F783420492F516D691D
:1034B00078003130204444532D436F6E73742020C4
:1034C000202000003131205A462043572020202060
:1034D0002020202000003132205A4620435720521D
:1034E00065766572732000003133205A46204C53B4
:1034F000422020202020202000003134205A462065
:103500005553422020202020202000003135205A11
:10351000462044494720202020202020000031362A
:10352000205A4620464D2020202020202020000028
:103530003137204444532054797065202020000006
:103540003138204C43447368696674202B205258EC
:1035500000003139204B616C2E2020532D4D6574B5
:10356000657200003230204B616C2E204C6569730F
:1035700074756E6700003231204D6974686F657232
:10358000746F6E2020200000323220545820686171
:103590006E672074696D65200000323320456570C8
:1035A000722E205049432D3E5043000032342045B6
:1035B0006570722E2050432D3E5049430000323535
:1035C0002045657072202D3E20466C6173680000B6
:1035D000323620466C617368202D3E20456570723E
:1035E0000000005357563D0040582020205820200E
:1035F0002065696E202061757300004C69636874F2
:103600006175746F6D6174696B202000004C696393
:10361000687420202020202020202020200000531B
:103620002D4D657465722020202020202020200050
:10363000003120487A204175666C6F6573756E673E
:103640002000403C2020203E202020205820202008
:10365000206F6B00004B65796572202020202020B0
:10366000202020202000005458205A4620706572E7
:103670006D616E656E74200000446973706C6179D1
:1036800073686966743D30202000406A6120202004
:103690002020202020776569746572000056464F0F
:1036A000203D205258667271202D205A4600404F0E
:1036B0004B20202020202020416262727563680028
:1036C000005330203D200000005339203D200000F1
:1036D0000053706569636865726E3F20202020206A
:1036E000200000504943202D2D2D3E205043202006
:1036F00054582000404665727469672120202020BC
:10370000202020202000005043202D2D2D3E205031
:1037100049432020525820000042616E642F4D6FB3
:10372000646520616B74697620000056464F7834DA
:1037300020492F51204D697865722000004D543D7D
:10374000200020487A0000456570726F6D202D2D95
:103750003E20466C6173680000537065696368655C
:1037600072706C61747A202020004031202020206B
:103770003220202020332020202034004020202010
:103780002020202020202020202020202000004653
:103790006C617368202D2D3E20456570726F6D0041
:1037A00000456570722E617566667269736368653F
:1037B0006E0000545868616E673D2000206D530014
:1037C0000066616B3D000D4D487A00000D435720A7
:1037D00000000D43577200000D4C534200000D5580
:1037E000534200000D44494700000D464D200000A3
:1037F0004042616E647765636873656C20202020A9
:1038000020000820566F6C7400004057704D3A201D
:10381000000000446174656E20696D204275666623
:10382000657220000055726C6164756E67202020FF
:103830002020202020000055726C6164756E672086
:103840006265656E646574000041626272756368EA
:103850002021212100004046616C7363686573205C
:10386000466F726D61742100403120412F42205318
:1038700054455020524954202000403220413D42BE
:10388000204D746F6E203130306B20004033204269
:103890003D4120204D656D2053417574200040341A
:1038A0002053575620205345542055626174200000
:1038B00040352020435720204C534220555342206E
:1038C000200040362043577220204449472020469C
:1038D0004D2020004037204D657373203136306D08
:1038E0002038306D2000403820202036306D2034C4
:1038F000306D2033306D2000403920202032306D73
:103900002031376D2031356D20004031302020319D
:10391000326D2031306D2020366D20004031312055
:1039200020326D20207472312074723220004031B8
:103930003220207472332074723420747235200067
:107F00001771C7BC0A010252060120A1070020A177
:107F1000070040420F0060E3160080841E0080844A
:107F20001E00180C00002887F9FF44018096980075
:107F3000809698000000509E1B00903A1C000103A0
:107F400040523600207538000103205C5100205C4F
:107F500051000103F0446B0060566C000103201DCA
:107F60009A00201D9A000104E089D600C0ACD80018
:107F70000104801F1401801F14010104A059410154
:107F800030B94201010490CA7B0190CA7B0101040F
:107F90006029AC01E0D2AF0101040029FC020029F4
:107FA000FC020104E0D79908E0D799080104003FDA
:107FB000AB01003FAB010104000000000000003FE6
:107FC000AB01003FAB010104000000000000003FD6
:107FD000AB01003FAB010104000000000000003FC6
:107FE000AB01003FAB010104000000000000003FB6
:107FF000AB01003FAB01010400000000000001657F
:020000040030CA
:0E000000FFFAF5FEFFFFFBFFFFFFFFFFFFFF14
:00000001FF
